:02000004080AE8
:1000000000000A0840340A08000006000600050146
:080010000402FE0800000000DC
:040018006C2A0A083C
:10001C0009480A4908B5884205D0094A824202D0EB
:10002C00121A02F03FFC0748074A0021121A02F08C
:10003C0047FC064808BD00BF00000020642C0A08DD
:10004C00B4070020B4070020350D0020350D00202A
:10005C0070B502F02BFB0025054E064CA41BA40822
:10006C00A54200D170BD56F8043B98470135F7E71F
:10007C003C2C0A08582C0A0800F08EB808B501F080
:10008C0097FCBDE8084002F0C9BA01F087BE01F048
:10009C008DBE0078B0FA80F04009704701230370E0
:1000AC007047000000214FF0030CF0B50E480546D8
:1000BC0000242F4604263B68013E03F1010393FB09
:1000CC00FCF202EB4202A3EB020347F8043BF2D131
:1000DC000134042C05F11005EBD10431102900F189
:1000EC004000E4D10120F0BD04040020034A0120AB
:1000FC00137883F001031370704700BF00020020D7
:10010C0010B5042186B00446002002F002F8042148
:10011C000390002001F0FDFF04210490002001F069
:10012C00F8FF05AB0590009303AA04AB09492068BE
:10013C0001F04CFEDDE90303059A074903EB80034C
:10014C0018010A50012001EB0313C3E90122DA6004
:10015C0006B010BDEB2A0A08040400200246014830
:10016C0001F05DBEFF1D0A080EB410B50023016836
:10017C0020208DB00FAA52F8044BCDE90403CDE931
:10018C00004203921E2004AA01F06CFD0DB0BDE8E4
:10019C00104003B07047000008B510491048FFF735
:1001AC00DDFF10491048FFF7D9FF10491048FFF741
:1001BC00D5FF10491048FFF7D1FF10491048FFF741
:1001CC00CDFF10491048FFF7C9FF10491048FFF741
:1001DC00C5FF10491048FFF7C1FF08BD050C0A0800
:1001EC00802A0A08190B0A08882A0A08E5080A084E
:1001FC00912A0A08BD050A08992A0A08F9000A0872
:10020C00A52A0A0819060A08B52A0A080D010A08BF
:10021C00C22A0A08B1000A08CD2A0A0870B5164D80
:10022C00164E2B68164C93B903232B600221002029
:10023C0001F06FFF2B6830601B01E35898420AD124
:10024C000128CCBF00F1FF300130306003E0013BEE
:10025C00032B2B60EAD000212B68326804EB0313CC
:10026C0001310429C3E90022C3E9022203F140034E
:10027C00F6D1012070BD00BFBC070020B4070020E0
:10028C000404002010B5042186B00446002001F0BF
:10029C0040FF04210390002001F03BFF0421049057
:1002AC00002001F036FF05AB0590009303AA04ABC8
:1002BC000C49206801F08AFDDDE9030305990A4A1F
:1002CC0003EB800303F1100042F8231042F82010D6
:1002DC0003F1200042F820100120303342F82310A3
:1002EC0006B010BDEB2A0A080404002010B5042146
:1002FC0086B00446002001F00CFF0421039000207E
:10030C0001F007FF04210490002001F002FF05AB6F
:10031C000590009303AA04AB0C49206801F056FD2C
:10032C00DDE9030305990A4A03EB0013181D42F893
:10033C00231042F8201003F1080042F8201001208D
:10034C000C3342F8231006B010BD00BFEB2A0A088C
:10035C0004040020F8B50621002001F0DAFE2D4F30
:10036C002D4C2E4E2E4D052813D8DFE800F0030D32
:10037C00252F3C463B68002B01DD013B08E00421A6
:10038C00002001F0C6FE20603B68022B0DDC01331F
:10039C003B6033683A68216803EB82022B6803EBFD
:1003AC008203204A42F82310F8BD0421002001F0FA
:1003BC00B0FE3B682060E0E73368002B01DD013BB9
:1003CC0008E00421002001F0A4FE20603368022B19
:1003DC0002DC01333360DCE70421002001F099FEDC
:1003EC0033682060EBE72B68002B01DD013B08E054
:1003FC000421002001F08DFE20602B68022B02DC12
:10040C0001332B60C5E70421002001F082FE2B682C
:10041C002060EBE7B8070020B4070020BC070020E1
:10042C00C007002004040020400090FBF1F101F013
:10043C0001000029B8BF404200EB610070470A6818
:10044C000368534003600A6853400B6002685340D2
:10045C00036070472DE9F04F8FB00B93189BCDE9DB
:10046C000C2199420A906DDD18A90DA8FFF7E7FF42
:10047C0001230C9A0493199B9A4265DD19A90CA8C7
:10048C00FFF7DDFF01230B9A05931A9B9A425DDD62
:10049C001AA90BA8FFF7D3FF012306930D9B1A9CF7
:1004AC000193019A189B9B1A0C9A02920299199A21
:1004BC00521A0B9993420391A4EB010448DDA34219
:1004CC001F46B8BF27460026B146B34604FB07F1CA
:1004DC0002FB07FA03FB07F8089107960799B94244
:1004EC0043DA0499002937D039464046FFF79CFF80
:1004FC00019901440991059989B339465046FFF792
:10050C0093FF02990D18069961B339460898FFF7C5
:10051C008BFF0399A34408440999AAEB020A05EB43
:10052C00810500EB850021490A9D914441F820503A
:10053C000799A8EB03080131079108991E44091B80
:10054C000891CBE7002394E700239CE70023A4E762
:10055C00A242B4DD1746B6E739463046C6E73946FF
:10056C004846CCE739465846D1E7049B1BB118A93D
:10057C000DA8FFF764FF059B1BB119A90CA8FFF789
:10058C005EFF069B1BB11AA90BA8FFF758FFDDE90C
:10059C00182303EB82021A9B0A9903EB8203034A8A
:1005AC0042F823100FB0BDE8F08F00BF0404002008
:1005BC00002300B58FB0CDE90733CDE90933CDE980
:1005CC000B330D930DAB04930CAB03930BAB02935A
:1005DC000AAB019309AB00930B49006808AB07AA5F
:1005EC0001F0F4FB07280BD10C9B079902930B9B92
:1005FC000D9801930A9B0093DDE90823FFF72AFF6E
:10060C0001200FB05DF804FBDB2A0A0832232DE928
:10061C00F04387B09449006805AA059301F0D6FB16
:10062C00012804D1059A91499148FFF79DFD0025B9
:10063C0003262F46DFF83C8298F80030002B00F0A0
:10064C000F814FF0030900242346CDE901940322C6
:10065C000021284600960134FFF7FCFE042CF3D150
:10066C00059801F0C3FBB9F10109ECD103244FF05B
:10067C0000094B46CDE9017903220021284600945C
:10068C0009F10109FFF7E6FEB9F1040FF1D1059864
:10069C0001F0ACFB013CEAD14FF0000900234A46C3
:1006AC00CDE9019619462846009409F10109FFF796
:1006BC00D1FEB9F1040FF1D10598013401F096FB8C
:1006CC00032CE9D14FF0000900234A46CDE90194EF
:1006DC0019462846009609F10109FFF7BBFEB9F14E
:1006EC00040FF1D1059801F081FB013CEAD14FF0E8
:1006FC00000900234946CDF800901A462846CDE95A
:10070C00016409F10109FFF7A5FEB9F1040FF0D15D
:10071C000598013401F06AFB032CE8D14FF0000975
:10072C0000234946CDF800901A462846CDE90146EB
:10073C0009F10109FFF78EFEB9F1040FF0D105980C
:10074C0001F054FB013CE9D14FF000094B46CDE9D7
:10075C000149002203212846009709F10109FFF7FE
:10076C0079FEB9F1040FF1D10598013401F03EFB8B
:10077C00032CE9D100244FF000094B46CDE9016967
:10078C00002203212846009409F10109FFF762FEBB
:10079C00B9F1040FF1D10598013401F027FB032CBA
:1007AC00E9D14FF0000903234A46CDE901971946D8
:1007BC002846009409F10109FFF74CFEB9F1040F2A
:1007CC00F1D1059801F012FB013CEAD14FF0000980
:1007DC0003234A46CDE9019419462846009709F1AE
:1007EC000109FFF737FEB9F1040FF1D10598013477
:1007FC0001F0FCFA032CE9D14FF000090323494620
:10080C00CDF800901A462846CDE9017409F101098A
:10081C00FFF720FEB9F1040FF0D1059801F0E6FACC
:10082C00013CE9D14FF0000903234946CDF8009073
:10083C001A462846CDE9014709F10109FFF70AFEDE
:10084C00B9F1040FF0D10598013401F0CFFA032C63
:10085C00E8D10135B5FBF4F404EB44042D1BEBE6B5
:10086C00012007B0BDE8F083F32A0A08F62A0A082B
:10087C00C40700200002002038B50C4685B228467B
:10088C00A4B2002101F08EFF2046002101F08AFF66
:10089C002846002101F097FF2046BDE83840002192
:1008AC0001F091BF80001BB1012B0CD0074B00E075
:1008BC00074B084402EB800203EBC201496853F872
:1008CC003200FFF7D9BF034BF3E700BF0000002055
:1008DC004805002004020020002310B586B0CDE9A5
:1008EC000233CDE9043305AB019304AB00931149FA
:1008FC00006803AB02AA01F069FA042817D1DDE9FC
:10090C000201049A0C4C01EB800302EB830354F8B4
:10091C002330022B01DCFFF7C5FFDDE9022303EBDB
:10092C008202049B03EB8203059A44F823200120E6
:10093C0006B010BDE72A0A080404002038B50D469D
:10094C000446ADB2FFF798FFA4B22846012101F08E
:10095C0029FF2046012101F025FF2846012101F045
:10096C0032FF2046BDE83840002101F02CBF0000CA
:10097C00012B0ED0022B0ED07BB9084B01EB800162
:10098C0002EB810203EBC201496853F83200FFF716
:10099C00D5BF034BF2E7034BF0E770474805002047
:1009AC0004020020000000202DE9F0470024154F20
:1009BC00DFF854A0B8460025C146002659F8043B80
:1009CC00022B0FDC324629462046FFF7D1FFDAF81E
:1009DC00000001F05DF832462946204659F8043CE7
:1009EC00FFF760FF0136042EE8D10135042D08F124
:1009FC001008E1D10134042C07F14007DAD1BDE82D
:100A0C00F08700BF04040020040500202DE9F04FFE
:100A1C003D4F642300253C4687B005934FF0140BE3
:100A2C004FF0000A032600234FF00108CAF1030916
:100A3C001A4651463868CDE900960295FFF70AFD33
:100A4C005146434600223868CDE90168CDF8009044
:100A5C00FFF700FD022351460022CDE901633868FF
:100A6C00CDF80090FFF7F6FC514633460022CDE955
:100A7C0001663868CDF80090C244FFF7EBFCB24534
:100A8C00D0D10026C6F10309CDE901950095324677
:100A9C00002303212068FFF7DDFCCDE901980095C8
:100AAC003246012303212068FFF7D4FC0223CDE951
:100ABC0001930095324603212068FFF7CBFC0323FA
:100ACC00CDE9019A00953246194620680136FFF7A8
:100ADC00C1FC032ED6D16426FFF766FF013EFBD185
:100AEC00BBF1010B9CD103222368013393FBF2F27F
:100AFC0002EB42029B1A2360059B013B05938DD1AF
:100B0C0007B0BDE8F08F00BFB407002032232DE9F9
:100B1C00F74F2A49006801AA019301F057F90128FF
:100B2C0004D1019A26492748FFF71EFB4FF0000815
:100B3C004FF0800ADFF898B0234B244A4FEA481450
:100B4C004FF004090BEB04071E191519D7E9000126
:100B5C00FFF7F4FE019801F049F9796857F8080B92
:100B6C00FFF78AFED6E90001FFF7E8FE019801F0D5
:100B7C003DF9716856F8080BFFF77EFED5E90001C8
:100B8C00FFF7DCFE019801F031F9696855F8080BA4
:100B9C00FFF772FEB9F101090B4B0C4AD6D1203488
:100BAC005445CDD108F10408B8F1100F04F1800AB6
:100BBC00C4D1012003B0BDE8F08F00BFF32A0A08AE
:100BCC00F62A0A08C40700200402002000000020B6
:100BDC004805002038B51024064D0021288801F066
:100BEC00E1FD55F8040B002180B201F0ECFD013C55
:100BFC00F3D138BD080500204FF4FA7307B5074947
:100C0C00006801AA019301F0E1F801280CD1019AC6
:100C1C0003490448FFF7A8FA06E000BFF32A0A08C4
:100C2C00F62A0A08C407002007210320FFF786FED6
:100C3C00019801F0DBF8FFF7CDFF03211120FFF73E
:100C4C007DFE019801F0D2F8FFF7C4FF11210D20B1
:100C5C00FFF774FE019801F0C9F8FFF7BBFF0D21F7
:100C6C000720FFF76BFE019801F0C0F8FFF7B2FF09
:100C7C0007210220FFF762FE019801F0B7F8FFF799
:100C8C00A9FF02211020FFF759FE019801F0AEF8E0
:100C9C00FFF7A0FF10210C20FFF750FE019801F088
:100CAC00A5F8FFF797FF0C210720FFF747FE0198E7
:100CBC0001F09CF8FFF78EFF07210120FFF73EFEA5
:100CCC00019801F093F8FFF785FF01210F20FFF742
:100CDC0035FE019801F08AF8FFF77CFF0F210B20FD
:100CEC00FFF72CFE019801F081F8FFF773FF0B2141
:100CFC000720FFF723FE019801F078F8FFF76AFF51
:100D0C0007210020FFF71AFE019801F06FF8FFF79A
:100D1C0061FF00210E20FFF711FE019801F066F82B
:100D2C00FFF758FF0E210A20FFF708FE019801F08B
:100D3C005DF8FFF74FFF0A210720FFF7FFFD019831
:100D4C0001F054F8FFF746FF06210320FFF7F6FDEC
:100D5C00019801F04BF8FFF73DFF03210E20FFF740
:100D6C00EDFD019801F042F8FFF734FF0E210C2045
:100D7C00FFF7E4FD019801F039F8FFF72BFF0C2188
:100D8C000620FFF7DBFD019801F030F8FFF722FF9A
:100D9C0006210220FFF7D2FD019801F027F8FFF79A
:100DAC0019FF02210F20FFF7C9FD019801F01EF871
:100DBC00FFF710FF0F210D20FFF7C0FD019801F088
:100DCC0015F8FFF707FF0D210620FFF7B7FD019877
:100DDC0001F00CF8FFF7FEFE06210120FFF7AEFD37
:100DEC00019801F003F8FFF7F5FE01211020FFF741
:100DFC00A5FD019800F0FAFFFFF7ECFE10210A2088
:100E0C00FFF79CFD019800F0F1FFFFF7E3FE0A21CC
:100E1C000620FFF793FD019800F0E8FFFFF7DAFEDC
:100E2C0006210020FFF78AFD019800F0DFFFFFF795
:100E3C00D1FE00211120FFF781FD019800F0D6FFB3
:100E4C00FFF7C8FE11210B20FFF778FD019800F089
:100E5C00CDFFFFF7BFFE0B210620FFF76FFD0198BA
:100E6C0000F0C4FFFFF7B6FE05210320FFF766FD77
:100E7C00019800F0BBFFFFF7ADFE03211020FFF738
:100E8C005DFD019800F0B2FFFFF7A4FE10210B20CE
:100E9C00FFF754FD019800F0A9FFFFF79BFE0B2113
:100EAC000520FFF74BFD019800F0A0FFFFF792FE25
:100EBC0005210220FFF742FD019800F097FFFFF794
:100ECC0089FE02211120FFF739FD019800F08EFFF9
:100EDC00FFF780FE11210A20FFF730FD019800F08A
:100EEC0085FFFFF777FE0A210520FFF727FD019804
:100EFC0000F07CFFFFF76EFE05210120FFF71EFDC1
:100F0C00019800F073FFFFF765FE01210E20FFF73B
:100F1C0015FD019800F06AFFFFF75CFE0E210D2015
:100F2C00FFF70CFD019800F061FFFFF753FE0D2158
:100F3C000520FFF703FD019800F058FFFFF74AFE6C
:100F4C0005210020FFF7FAFC019800F04FFFFFF796
:100F5C0041FE00210F20FFF7F1FC019800F046FF45
:100F6C00FFF738FE0F210C20FFF7E8FC019800F08A
:100F7C003DFFFFF72FFE0C210520FFF7DFFC01984A
:100F8C0000F034FFFFF726FE04210320FFF7D6FC08
:100F9C00019800F02BFFFFF71DFE03210F20FFF738
:100FAC00CDFC019800F022FFFFF714FE0F210A2060
:100FBC00FFF7C4FC019800F019FFFFF70BFE0A21A4
:100FCC000420FFF7BBFC019800F010FFFFF702FEB6
:100FDC0004210220FFF7B2FC019800F007FFFFF795
:100FEC00F9FD02210E20FFF7A9FC019800F0FEFE8E
:100FFC00FFF7F0FD0E210B20FFF7A0FC019800F08D
:10100C00F5FEFFF7E7FD0B210420FFF797FC019895
:10101C0000F0ECFEFFF7DEFD04210120FFF78EFC53
:10102C00019800F0E3FEFFF7D5FD01211120FFF739
:10103C0085FC019800F0DAFEFFF7CCFD11210C20A5
:10104C00FFF77CFC019800F0D1FEFFF7C3FD0C21EB
:10105C000420FFF773FC019800F0C8FEFFF7BAFDFF
:10106C0004210020FFF76AFC019800F0BFFEFFF797
:10107C00B1FD00211020FFF761FC019800F0B6FED5
:10108C00FFF7A8FD10210D20FFF758FC019800F088
:10109C00ADFEFFF79FFD0D210420FFF74FFC0198DB
:1010AC0000F0A4FEFFF796FD0D210320FFF746FC90
:1010BC00019800F09BFEFFF78DFD07211120FFF733
:1010CC003DFC019800F092FEFFF784FD03210D20FA
:1010DC00FFF734FC019800F089FEFFF77BFD11212E
:1010EC000720FFF72BFC019800F080FEFFF772FD44
:1010FC000C210220FFF722FC019800F077FEFFF78D
:10110C0069FD07211020FFF719FC019800F06EFE15
:10111C00FFF760FD02210C20FFF710FC019800F096
:10112C0065FEFFF757FD10210720FFF707FC01981C
:10113C0000F05CFEFFF74EFD0B210120FFF7FEFBDC
:10114C00019800F053FEFFF745FD07210F20FFF734
:10115C00F5FB019800F04AFEFFF73CFD01210B2046
:10116C00FFF7ECFB019800F041FEFFF733FD0F2178
:10117C000720FFF7E3FB019800F038FEFFF72AFD8C
:10118C000A210020FFF7DAFB019800F02FFEFFF791
:10119C0021FD07210E20FFF7D1FB019800F026FE60
:1011AC00FFF718FD00210A20FFF7C8FB019800F09B
:1011BC001DFEFFF70FFD0E210720FFF7BFFB019867
:1011CC0000F014FEFFF706FD0C210320FFF7B6FB21
:1011DC00019800F00BFEFFF7FDFC06210E20FFF737
:1011EC00ADFB019800F002FEFFF7F4FC03210C208C
:1011FC00FFF7A4FB019800F0F9FDFFF7EBFC0E21C3
:10120C000620FFF79BFB019800F0F0FDFFF7E2FCD6
:10121C000D210220FFF792FB019800F0E7FDFFF78C
:10122C00D9FC06210F20FFF789FB019800F0DEFDA9
:10123C00FFF7D0FC02210D20FFF780FB019800F096
:10124C00D5FDFFF7C7FC0F210620FFF777FB0198B0
:10125C0000F0CCFDFFF7BEFC0A210120FFF76EFB6E
:10126C00019800F0C3FDFFF7B5FC06211020FFF735
:10127C0065FB019800F0BAFDFFF7ACFC01210A20D8
:10128C00FFF75CFB019800F0B1FDFFF7A3FC102108
:10129C000620FFF753FB019800F0A8FDFFF79AFC1E
:1012AC000B210020FFF74AFB019800F09FFDFFF790
:1012BC0091FC06211120FFF741FB019800F096FDEF
:1012CC00FFF788FC00210B20FFF738FB019800F09A
:1012DC008DFDFFF77FFC11210620FFF72FFB0198F6
:1012EC0000F084FDFFF776FC0B210320FFF726FBB3
:1012FC00019800F07BFDFFF76DFC05211020FFF736
:10130C001DFB019800F072FDFFF764FC03210B201C
:10131C00FFF714FB019800F069FDFFF75BFC10214F
:10132C000520FFF70BFB019800F060FDFFF752FC66
:10133C000A210220FFF702FB019800F057FDFFF78E
:10134C0049FC05211120FFF7F9FA019800F04EFD38
:10135C00FFF740FC02210A20FFF7F0FA019800F099
:10136C0045FDFFF737FC11210520FFF7E7FA01983F
:10137C0000F03CFDFFF72EFC0D210120FFF7DEFAFB
:10138C00019800F033FDFFF725FC05210E20FFF737
:10139C00D5FA019800F02AFDFFF71CFC01210D2065
:1013AC00FFF7CCFA019800F021FDFFF713FC0E219A
:1013BC000520FFF7C3FA019800F018FDFFF70AFCAF
:1013CC000C210020FFF7BAFA019800F00FFDFFF78F
:1013DC0001FC05210F20FFF7B1FA019800F006FD82
:1013EC00FFF7F8FB00210C20FFF7A8FA019800F09A
:1013FC00FDFCFFF7EFFB0F210520FFF79FFA01988B
:10140C0000F0F4FCFFF7E6FB0A210320FFF796FA45
:10141C00019800F0EBFCFFF7DDFB04210F20FFF738
:10142C008DFA019800F0E2FCFFF7D4FB03210A20AF
:10143C00FFF784FA019800F0D9FCFFF7CBFB0F21E2
:10144C000420FFF77BFA019800F0D0FCFFF7C2FBF9
:10145C000B210220FFF772FA019800F0C7FCFFF78E
:10146C00B9FB04210E20FFF769FA019800F0BEFCCD
:10147C00FFF7B0FB02210B20FFF760FA019800F098
:10148C00B5FCFFF7A7FB0E210420FFF757FA0198D4
:10149C0000F0ACFCFFF79EFB0C210120FFF74EFA8D
:1014AC00019800F0A3FCFFF795FB04211120FFF736
:1014BC0045FA019800F09AFCFFF78CFB01210C20F7
:1014CC00FFF73CFA019800F091FCFFF783FB112128
:1014DC000420FFF733FA019800F088FCFFF77AFB41
:1014EC000D210020FFF72AFA019800F07FFCFFF78E
:1014FC0071FB04211020FFF721FA019800F076FC13
:10150C00FFF768FB00210D20FFF718FA019800F097
:10151C006DFCFFF75FFB10210420FFF70FFA019819
:10152C0000F064FCFFF756FB11210320FFF706FACD
:10153C00019800F05BFCFFF74DFB0D211120FFF72C
:10154C00FDF9019800F052FCFFF744FB07210D2038
:10155C00FFF7F4F9019800F049FCFFF73BFB03217E
:10156C000720FFF7EBF9019800F040FCFFF732FB86
:10157C0010210220FFF7E2F9019800F037FCFFF789
:10158C0029FB0C211020FFF7D9F9019800F02EFC53
:10159C00FFF720FB07210C20FFF7D0F9019800F092
:1015AC0025FCFFF717FB02210720FFF7C7F901986D
:1015BC0000F01CFCFFF70EFB0F210120FFF7BEF91A
:1015CC00019800F013FCFFF705FB0B210F20FFF730
:1015DC00B5F9019800F00AFCFFF7FCFA07210B2083
:1015EC00FFF7ACF9019800F001FCFFF7F3FA0121C9
:1015FC000720FFF7A3F9019800F0F8FBFFF7EAFAD0
:10160C000E210020FFF79AF9019800F0EFFBFFF78D
:10161C00E1FA0A210E20FFF791F9019800F0E6FBA0
:10162C00FFF7D8FA07210A20FFF788F9019800F094
:10163C00DDFBFFF7CFFA00210720FFF77FF90198B8
:10164C0000F0D4FBFFF7C6FA0E210320FFF776F962
:10165C00019800F0CBFBFFF7BDFA0C210E20FFF731
:10166C006DF9019800F0C2FBFFF7B4FA06210C20CB
:10167C00FFF764F9019800F0B9FBFFF7ABFA03210F
:10168C000620FFF75BF9019800F0B0FBFFF7A2FA18
:10169C000F210220FFF752F9019800F0A7FBFFF78A
:1016AC0099FA0D210F20FFF749F9019800F09EFBE4
:1016BC00FFF790FA06210D20FFF740F9019800F092
:1016CC0095FBFFF787FA02210620FFF737F90198FF
:1016DC0000F08CFBFFF77EFA10210120FFF72EF9AA
:1016EC00019800F083FBFFF775FA0A211020FFF731
:1016FC0025F9019800F07AFBFFF76CFA06210A2015
:10170C00FFF71CF9019800F071FBFFF763FA012158
:10171C000620FFF713F9019800F068FBFFF75AFA5F
:10172C0011210020FFF70AF9019800F05FFBFFF789
:10173C0051FA0B211120FFF701F9019800F056FB2B
:10174C00FFF748FA06210B20FFF7F8F8019800F094
:10175C004DFBFFF73FFA00210620FFF7EFF8019849
:10176C0000F044FBFFF736FA10210320FFF7E6F8F0
:10177C00019800F03BFBFFF72DFA0B211020FFF72F
:10178C00DDF8019800F032FBFFF724FA05210B205D
:10179C00FFF7D4F8019800F029FBFFF71BFA03219F
:1017AC000520FFF7CBF8019800F020FBFFF712FAA9
:1017BC0011210220FFF7C2F8019800F017FBFFF788
:1017CC0009FA0A211120FFF7B9F8019800F00EFB75
:1017DC00FFF700FA05210A20FFF7B0F8019800F096
:1017EC0005FBFFF7F7F902210520FFF7A7F8019891
:1017FC0000F0FCFAFFF7EEF90E210120FFF79EF83E
:10180C00019800F0F3FAFFF7E5F90D210E20FFF730
:10181C0095F8019800F0EAFAFFF7DCF905210D20A4
:10182C00FFF78CF8019800F0E1FAFFF7D3F90121EA
:10183C000520FFF783F8019800F0D8FAFFF7CAF9F2
:10184C000F210020FFF77AF8019800F0CFFAFFF78C
:10185C00C1F90C210F20FFF771F8019800F0C6FABE
:10186C00FFF7B8F905210C20FFF768F8019800F094
:10187C00BDFAFFF7AFF900210520FFF75FF80198DB
:10188C0000F0B4FAFFF7A6F90F210320FFF756F882
:10189C00019800F0ABFAFFF79DF90A210F20FFF732
:1018AC004DF8019800F0A2FAFFF794F904210A20F0
:1018BC00FFF744F8019800F099FAFFF78BF9032130
:1018CC000420FFF73BF8019800F090FAFFF782F93B
:1018DC000E210220FFF732F8019800F087FAFFF78B
:1018EC0079F90B210E20FFF729F8019800F07EFA08
:1018FC00FFF770F904210B20FFF720F8019800F096
:10190C0075FAFFF767F902210420FFF717F8019821
:10191C0000F06CFAFFF75EF911210120FFF70EF8C9
:10192C00019800F063FAFFF755F90C211120FFF72D
:10193C0005F8019800F05AFAFFF74CF904210C2035
:10194C00FEF7FCFF019800F051FAFFF743F9012173
:10195C000420FEF7F3FF019800F048FAFFF73AF97C
:10196C0010210020FEF7EAFF019800F03FFAFFF784
:10197C0031F90D211020FEF7E1FF019800F036FA45
:10198C00FFF728F904210D20FEF7D8FF019800F08D
:10199C002DFAFFF71FF900210420FEF7CFFF019865
:1019AC0000F024FAFFF716F9012003B05DF804FBF0
:1019BC001FB5294B1B78082B10D8DFE803F0051650
:1019CC001921292C3C3444006846244900F00BFCB6
:1019DC006846FFF711F9684600F0BBFB2824FEF7B8
:1019EC00E3FF013CFBD104B010BDFFF70FF8F5E7A6
:1019FC0068461A4900F0F7FB6846FEF707FEEAE76F
:101A0C006846164900F0EFFB6846FEF74BFBE2E731
:101A1C00FEF7A0FCE2E76846104900F0E4FB6846DC
:101A2C00FEF76EFBD7E768460C4900F0DCFB684616
:101A3C00FEF728FCCFE76846084900F0D4FB68465F
:101A4C00FEF754FCC7E76846044900F0CCFB684637
:101A5C00FEF7E4FBBFE700BF01020020902A0A0852
:101A6C0008B5024B1B685B6C019308BDD0010608DE
:101A7C0008B5024B1B689B6C019308BDD00106088E
:101A8C0008B5024B1B685B68019308BD9C010608F6
:101A9C0008B5024B1B68DB68019308BD9C01060866
:101AAC0008B5024B1B685B69019308BD9C010608D5
:101ABC0008B5024B1B689B68019308BDB001060872
:101ACC0008B5024B1B68DB68019308BDB001060822
:101ADC0008B5024B1B681B69019308BDB0010608D1
:101AEC0008B5024B1B681B6E019308BDAC010608C0
:101AFC0008B5024B1B685B6E019308BDAC01060870
:101B0C0008B5024B1B689B6E019308BDAC0106081F
:101B1C0008B5024B1B68DB6E019308BDAC010608CF
:101B2C0008B5024B1B681B6F019308BDAC0106087E
:101B3C0008B5024B1B685B6F019308BDAC0106082E
:101B4C0008B5034B1B68D3F88030019308BD000027
:101B5C00AC01060808B5024B1B68DB69019308BD94
:101B6C00B401060808B5024B1B681B6A019308BD3B
:101B7C00B401060808B5024B1B689B69019308BDAC
:101B8C00C401060808B5024B1B685B6A019308BDCB
:101B9C00C401060808B5024B1B689B6A019308BD7B
:101BAC00C401060808B5024B1B68DB6A019308BD2B
:101BBC00C401060808B5024B1B681B6B019308BDDA
:101BCC00C401060808B5024B1B685B6B019308BD8A
:101BDC00C401060808B5024B1B689B6B019308BD3A
:101BEC00C401060808B5024B1B681B6C019308BDA9
:101BFC00C401060808B5024B1B681B68019308BD9D
:101C0C00D801060808B5024B1B681B69019308BD77
:101C1C00D801060808B5024B1B685B69019308BD27
:101C2C00D801060808B5024B1B689B69019308BDD7
:101C3C00D801060808B5024B1B68DB69019308BD87
:101C4C00D801060808B5024B1B681B6A019308BD36
:101C5C00D801060808B5024B1B689B6C019308BDA4
:101C6C00C001060808B5024B1B685B6D019308BDEB
:101C7C00A801020808B5024B1B685B68019308BDFC
:101C8C00A401060808B5024B1B685B69019308BDEB
:101C9C00A401060808B5034B1B68D3F890300193D8
:101CAC0008BD0000A401060808B5034B1B68D3F857
:101CBC009C30019308BD0000A401060808B5024B36
:101CCC001B685B68019308BDCC01060808B5024B84
:101CDC001B68DB6B019308BDCC01060808B5024BF1
:101CEC001B685B68019308BDC801060808B5024B68
:101CFC001B689B68019308BDC801060808B5024B18
:101D0C001B68DB68019308BDC801060808B5024BC7
:101D1C001B681B69019308BDC801060808B5024B76
:101D2C001B685B69019308BDC801060808B5024B26
:101D3C001B689B69019308BDC801060808B5024BD6
:101D4C001B68DB69019308BDC801060808B5024B86
:101D5C001B681B6A019308BDC801060808B5024B35
:101D6C001B681B6B019308BDC801060808B5024B24
:101D7C001B685B6B019308BDC801060808B5024BD4
:101D8C001B681B6C019308BDC801060808B5024B03
:101D9C001B685B6C019308BDC801060808B5024BB3
:101DAC001B681B68019308BDA001060808B5024B0F
:101DBC001B685B68019308BDA001060808B5024BBF
:101DCC001B689B68019308BDA001060808B5024B6F
:101DDC001B685B69019308BDA001060808B5024B9E
:101DEC001B685B6C019308BDA00106080021FFF77E
:101DFC0049BF10B588B00446684600F0F4F969464E
:101E0C0004A800F012FA04A8A047044604A800F0A5
:101E1C00A0F9684600F09DF9204608B010BD1FB52A
:101E2C0000231024CDE90201019269461A46184696
:101E3C00ADF80230ADF80040FFF740FF04B010BD24
:101E4C007047F8B5064615460C468F18BC4206D0AE
:101E5C00336830469B6814F8011B9847F6E7284610
:101E6C00F8BD0022007CFFF73BBE0021007CFFF791
:101E7C003FBE0021007CFFF743BE0021007CFFF732
:101E8C0047BE0021007CFFF74BBE10B50446142161
:101E9C0000F0FEFC204610BD10B54FF47A730446DA
:101EAC0008460021C4E90113034B1146236020743A
:101EBC00FFF746FE204610BD0C2B0A08704710B5E4
:101ECC000446182100F0E4FC204610BDF8B50E467F
:101EDC00002400F10807051D17F8011D0A223046E1
:101EEC0000F0EFF8AF42044401D12046F8BD002CBD
:101EFC00F2D02E21304600F0E1F80444ECE700006B
:101F0C0010B50446044B1122002140F8043B00F0AC
:101F1C00D7FC204610BD00BF342B0A080346074AE5
:101F2C0010B543F8042B01F1100251F8044B914207
:101F3C0043F8044BF9D10A781A7010BD342B0A08F7
:101F4C00024AC0E90021042202757047342B0A08AA
:101F5C0010B59DF8084044EA0324042344EA0244E3
:101F6C0044EA01644460037510BD000037B5044DAC
:101F7C0005609DF818500095FFF7EAFF03B030BDDF
:101F8C00342B0A08014B024A1A607047C407002020
:101F9C00402B0A08002340681A46FFF79FBE002218
:101FAC0002214068FFF7AABE002240681146FFF7E5
:101FBC009DBE002240681146FFF7A8BE0023406872
:101FCC001A461946FFF7AABE002340681A4619465E
:101FDC00FFF7ACBE00214068FFF7D0BE002140687F
:101FEC00FFF7D4BE0022406881F00101FFF7A6BEC6
:101FFC0000224068FFF7B2BE002240681146FFF78E
:10200C00B5BE002240681146FFF7A0BE70B515465C
:10201C008EB0044608A8FFF773FF1122002103A815
:10202C0000F04EFC0026284600F0AAFC0A4B009655
:10203C0081B25B68284603AAFFF70CFE30B131462B
:10204C002046FFF77DFF20460EB070BD204603A949
:10205C00FFF764FFF7E700BF480C0020024B034A70
:10206C001A6000225A607047C80700204C2B0A08DF
:10207C00F8B506460D4600248F18BD420CD03368C7
:10208C0030469B6815F8011B9847031E01DB1C4466
:10209C00F3E7002C08BF1C462046F8BD70B505467A
:1020AC000C46084649B100F06BFC2B6802462146F1
:1020BC002846BDE87040DB68184770BD03689B6814
:1020CC0018470023012A98BF0A2230B58BB00C4662
:1020DC008DF8243009A92546B4FBF2F404FB125305
:1020EC00DBB2092B94BF30333733DBB2AA4201F891
:1020FC00013DF0D9FFF7D2FF0BB030BD10B504464F
:10210C0028B100F009FC90FBF4F303FB1404204607
:10211C0010BD884210B5044603DA081AFFF7EEFF2B
:10212C000444204610BD00000022014B9A60704709
:10213C00D007002070B5002604460D4640F8086F05
:10214C00FFF78EFC28462570FFF704FD20466660DD
:10215C0070BD10B504460068FFF728FE204610BD80
:10216C0010B50446006808B1FFF720FE0023C4E94F
:10217C000133236010BD38B504460D4600680131AB
:10218C00FFF71CFE10B1C4E90005012038BD10B5E5
:10219C000368044623B143688B4201D3012010BD70
:1021AC002046FFF7E8FF0028F9D0A368002BF5D1F3
:1021BC0022681370F2E770B50E46114604461546B8
:1021CC00FFF7E5FF20B92046FFF7CAFF204670BD98
:1021DC002A4631462068A56000F064FB0021226885
:1021EC00A368D154F2E738B5002304460D46C0E984
:1021FC0000338360037339B1084600F0C1FB2946F4
:10220C0002462046FFF7D7FF204638BD884210B55E
:10221C000B46044604D0096821B19A68FFF7CBFF3E
:10222C00204610BDFFF79CFFFAE7002310B50446CB
:10223C00C0E9003383600373FFF7E8FF204610BD4D
:10224C0002220020044B1A60044B054A1860988047
:10225C0098719A60FFF70EBDEC070020E007002094
:10226C000000FFFF024B1A68024B1A60704700BF58
:10227C0048070020F00700207047417470477047F2
:10228C0008B5007CFFF7AEFC20EAE07008BD08B58D
:10229C00007CFFF77FFC20EAE07008BD08B5007CED
:1022AC00FFF788FC40EAE07008BD08B5007CFFF73A
:1022BC0079FC40EAE07008BD007CFFF783BC70B588
:1022CC00467C04460D462EB12946207CBDE8704064
:1022DC00FFF758BC007CFFF785FC0028F4DC304687
:1022EC0070BD10B50446142100F0D2FA204610BD82
:1022FC004FF0000C10B50446084611464FF47A72A4
:10230C00C4E901C2044A20742260012262741A4694
:10231C00FFF730FC204610BDA42B0A0838B50C4D35
:10232C002978BFF35B8F11F001040FD12846FDF71C
:10233C00B0FE58B12146074B074A0848FFF7D8FFB3
:10234C002846FDF7ABFE064800F0A6FA034838BD58
:10235C00F40700207C080020F8070020000900206A
:10236C008B220A08417470477047704708B50021EA
:10237C00007CFFF757FC40EAE07008BD08B501216E
:10238C00007CFFF74FFC40EAE07008BD08B5007C0C
:10239C00FFF740FC20EAE07008BD08B5007CFFF7B1
:1023AC0031FC20EAE07008BD38B50446007C0D46CF
:1023BC00FFF730FC002801DC607C28B12946207C2A
:1023CC00FFF738FC20EAE07038BD007CFFF73ABC20
:1023DC0010B50446142100F05BFA204610BD70477E
:1023EC0010B54FF47A73044608460021C4E9011372
:1023FC00044B20742360012311466374FFF7FAFB2E
:10240C00204610BDD42B0A0810B504461422002116
:10241C0000F056FA054B20466360054BE36040F232
:10242C00011323818123238210BD00BF44090020A6
:10243C00450A002030B50E4D87B001A8FFF7E4FF28
:10244C002978BFF35B8F11F001040ED12846FDF7FC
:10245C0020FE50B1214601AA0648FFF7C1FF2846CD
:10246C00FDF71CFE044800F017FA024807B030BD17
:10247C00140900201C09002075230A0810B5044615
:10248C001422002100F01CFA054B20466360054B1A
:10249C00E36040F2011323818123238210BD00BF2E
:1024AC00C60A0020C70B002010B50E4C86B001A840
:1024BC00FFF7E4FF2378BFF35B8FDB070ED42046D6
:1024CC00FDF7E7FD50B1012101AA0748FFF788FF8E
:1024DC002046FDF7E3FD054800F0DEF9024806B0A2
:1024EC0010BD00BF1809002030090020EB230A089A
:1024FC00002240681146FFF709BCF0B5154689B0BB
:10250C0011220E460446002103A800F0D9F92846F2
:10251C0000F036FA002781B273682846009703AAA8
:10252C00FFF798FB30B139462046FFF709FD2046EE
:10253C0009B0F0BD204603A9FFF7F0FCF7E7002235
:10254C0040681146FFF702BC002240681146FFF7B5
:10255C000DBC00224068FFF701BC0022406881F0EE
:10256C000101FFF7EBBB002340681A461946FFF741
:10257C00DDBB002340681A461946FFF7CFBB00228B
:10258C0040681146FFF7B2BB002202214068FFF7FA
:10259C00B5BB002340681A46FFF7A0BB0422024BD0
:1025AC005A60024A1A607047480C0020042C0A0832
:1025BC00014B1860704700BF4C07002008B5134B47
:1025CC0043B1FFF737FF03681B699847002801DD0B
:1025DC00AFF300800E4B43B1FFF7A0FE03681B69FD
:1025EC009847002801DDAFF300800A4B0BB1AFF325
:1025FC000080094B43B1FFF757FF03681B699847ED
:10260C00002801DDAFF3008008BD00BF0000000012
:10261C0000000000000000000000000008B5FFF7FB
:10262C00CDFFFFF73DFA014B186008BD680C002088
:10263C000548064A08B5121A054900F033F9054B4E
:10264C00054A1A6008BD00BF004002400440024029
:10265C00602C0A08004002401E1C279A002307B574
:10266C001A466FF077010093FFF71EFB03B05DF87D
:10267C0004FB000007B543880A2B08D0502B0BD164
:10268C00094B1B684BB103B05DF804EB1847FFF71F
:10269C00E5FF03B05DF804FB00231A466FF07701E9
:1026AC000093FFF701FBF4E7540C0020002110B558
:1026BC001148FFF793FB114B1A68114B9A420CBF50
:1026CC00012200220F4B1A7001D0FFF7B1FFFFF768
:1026DC00D7F9044600F0FCF80B4B13B12046AFF3CE
:1026EC00008000210848FFF7F1FABDE810400021F6
:1026FC000648FFF7CFBA00BFBD250A0800400240CC
:10270C001E1C279A500C00200000000081260A088D
:10271C00024B986808B1FFF7ABB970475C0C00200E
:10272C00172870B5044601D9002070BDA0F10D0327
:10273C00022B0BD9012824D800F078F80021007C5A
:10274C00FFF7F6F980F00100C0B2EEE7124E3178D7
:10275C00BFF35B8F11F001050DD13046FDF799FCED
:10276C0048B129460D48FFF7E5FC3046FDF796FCCD
:10277C000B4800F091F8094B1878FFF7F3F9002893
:10278C00D2D1123C012C05D8FFF7C8FD007CFFF715
:10279C0021FAD7E70120C8E7580C00205C0C002078
:1027AC001D270A08172838B504460D460AD8FF29F4
:1027BC0008D0FFF7B5FF28B129462046BDE83840C0
:1027CC00FFF776B938BD38B504460D46FFF778F9F2
:1027DC00FF2810D0062804D84D2323FA00F0C30795
:1027EC0009D42046FFF79CFF28B129462046BDE8B6
:1027FC003840FFF76DB938BD70470000002370B545
:10280C00202543801423084E0446038031468560FE
:10281C000561284600F03EF831466060284600F01D
:10282C0039F8E060204670BD382C0A0830B50E4DE2
:10283C0087B02978BFF35B8F11F0010411D12846C2
:10284C00FDF727FC68B101A8FFF7D8FF214601AAC4
:10285C000648FFF721FB2846FDF720FC044800F052
:10286C001BF8024807B030BD6C0C0020700C002027
:10287C0005280A08002307B51A4619460093034891
:10288C00FFF774FB03B05DF804FB00BF840C002061
:10289C00FDF7FDBBFDF7F9BB002301461A461846B0
:1028AC0000F076B80A44914200F1FF3300D1704732
:1028BC0010B511F8014B914203F8014FF9D110BD3D
:1028CC0003460244934200D1704703F8011BF9E719
:1028DC0038B50D4B04461D68AB6B7BB91820FFF760
:1028EC005DFA0A4A0A4BA863C0E90023094B01228E
:1028FC0083600B2383810023C0E904230022AB6B8C
:10290C001C615A6138BD00BF4C0700200E33CDABA3
:10291C0034126DE6ECDE0500134B10B51C68A36B8E
:10292C007BB91820FFF73AFA104A114BA063C0E9A3
:10293C000023104B012283600B2383810023C0E909
:10294C000423A16B0C480A694B6950430B4C04FBE4
:10295C000300A2FB04345A1C044444F10000C1E9F6
:10296C00042020F0004010BD4C0700200E33CDABEE
:10297C0034126DE6ECDE05002DF451582D7F954C8C
:10298C00034613F8012B002AFBD1181A01387047A3
:10299C002DE9F843DFF8BC800646D8F800001F4646
:1029AC000D46914600F058F8264B1C6834B9264C5D
:1029BC001C60264B13B11B68C4F8883063681F2B4E
:1029CC0007DDD8F8000000F049F84FF0FF30BDE803
:1029DC00F8835EB3D4F8880088B91D4B23B9D8F8B6
:1029EC00000000F03AF8F0E74FF48470FFF7D6F9E6
:1029FC000028F4D00023C0E94033C4F88800012239
:102A0C006368022E40F8239002FA03F200EB830174
:102A1C00D0F8003143EA0203C0F80031C1F88070ED
:102A2C0002BFD0F804311A43C0F804216368D8F807
:102A3C0000005A1C0233626044F8235000F00EF878
:102A4C000020C4E7280D00209C0C00200000000092
:102A5C00A91D0A08B0070020704770477047000096
:102A6C001D000A085D000A0885000A0889000A088A
:102A7C0000000000636F756E74557000636F756EA7
:102A8C0074557032006C69676874497400647261C3
:102A9C00774C696E6541504900746F67676C65418E
:102AAC006E696D6174696F6E00706C616E617246F7
:102ABC006C6F7033440064726177436F6C756D6E2C
:102ACC00006E657874436F6C6F7243756265002598
:102ADC00642C2025642C2025642C2025642C202596
:102AEC00642C2025642C2025640064656C61795469
:102AFC00696D653D256400000000000000000000C9
:102B0C004D1E0A08971E0A086F1E0A084F1E0A0857
:102B1C00771E0A087F1E0A08871E0A088F1E0A08DD
:102B2C000000000000000000D91E0A08C91E0A0897
:102B3C00CB1E0A086170700000000000000000004D
:102B4C00A11F0A08AB1F0A08B51F0A08BF1F0A08F5
:102B5C00C91F0A08D51F0A08E11F0A08E91F0A083D
:102B6C00F11F0A08FD1F0A0805200A080F200A0891
:102B7C0019200A0825592D256D2D25645425483A10
:102B8C00254D3A2553257A0061736374696D650090
:102B9C00000000000000000085220A08EF220A084D
:102BAC00CB220A087D200A089B220A08B7220A08B1
:102BBC00A9220A08C5220A0887220A088D220A08B7
:102BCC00000000000000000077230A08DD230A083B
:102BDC00B5230A087D200A08A7230A0879230A08C6
:102BEC0089230A08D7230A0899230A0871230A089B
:102BFC0000000000000000009F250A0895250A0827
:102C0C008B250A08FD240A087F250A0873250A0863
:102C1C00E11F0A08E91F0A0867250A085F250A0848
:102C2C0055250A084B250A0807250A08000000004C
:102C3C00911F0A0869200A0835210A084D220A0842
:102C4C0071220A08A9250A0881280A080000000038
:042C5C000000000074
:042C60000000000070
:102C64000300000011000000110000000D0000002E
:102C74000D00000007000000070000000300000032
:102C84000200000010000000100000000C00000012
:102C94000C00000007000000070000000200000014
:102CA400010000000F0000000F0000000B000000F6
:102CB4000B000000070000000700000001000000F6
:102CC400000000000E0000000E0000000A000000DA
:102CD4000A000000070000000700000000000000D8
:102CE400030000000E0000000E0000000C000000B5
:102CF4000C000000060000000600000003000000B5
:102D0400020000000F0000000F0000000D00000092
:102D14000D00000006000000060000000200000094
:102D24000100000010000000100000000A00000074
:102D34000A00000006000000060000000100000078
:102D44000000000011000000110000000B00000052
:102D54000B00000006000000060000000000000058
:102D64000300000010000000100000000B00000031
:102D74000B00000005000000050000000300000037
:102D84000200000011000000110000000A00000011
:102D94000A00000005000000050000000200000019
:102DA400010000000E0000000E0000000D000000F5
:102DB4000D000000050000000500000001000000F7
:102DC400000000000F0000000F0000000C000000D5
:102DD4000C000000050000000500000000000000D9
:102DE400030000000F0000000F0000000A000000B4
:102DF4000A000000040000000400000003000000BA
:102E0400020000000E0000000E0000000B00000095
:102E14000B00000004000000040000000200000099
:102E24000100000011000000110000000C0000006F
:102E34000C00000004000000040000000100000079
:102E44000000000010000000100000000D00000051
:102E54000D00000004000000040000000000000059
:102E640001040000030000000D0000001100000038
:102E7400070000000D000000030000000700000030
:102E840011000000020000000C000000100000000F
:102E9400070000000C000000020000000700000012
:102EA40010000000010000000B0000000F000000F3
:102EB400070000000B0000000100000007000000F4
:102EC4000F000000000000000A0000000E000000D7
:102ED400070000000A0000000000000007000000D6
:102EE4000E000000030000000C0000000E000000B3
:102EF400060000000C0000000300000006000000B3
:102F04000E000000020000000D0000000F00000091
:102F1400060000000D000000020000000600000092
:102F24000F000000010000000A0000001000000073
:102F3400060000000A000000010000000600000076
:102F440010000000000000000B0000001100000051
:102F5400060000000B000000000000000600000056
:102F640011000000030000000B000000100000002E
:102F7400050000000B000000030000000500000035
:102F840010000000020000000A0000001100000010
:102F9400050000000A000000020000000500000017
:102FA40011000000010000000D0000000E000000F0
:102FB400050000000D0000000100000005000000F5
:102FC4000E000000000000000C0000000F000000D4
:102FD400050000000C0000000000000005000000D7
:102FE4000F000000030000000A0000000F000000B2
:102FF400040000000A0000000300000004000000B8
:103004000F000000020000000B0000000E00000092
:10301400040000000B000000020000000400000097
:103024000E000000010000000C0000001100000070
:10303400040000000C000000010000000400000077
:1030440011000000000000000D000000100000004E
:10305400040000000D000000000000000400000057
:103064001000000003000000030000000300000043
:103074000300000003000000030000000300000040
:103084000300000003000000030000000300000030
:103094000300000003000000030000000300000020
:1030A4000300000003000000030000000300000010
:1030B4000300000003000000030000000300000000
:1030C40003000000030000000300000003000000F0
:1030D40003000000030000000300000003000000E0
:1030E40003000000030000000300000003000000D0
:1030F40003000000030000000300000003000000C0
:1031040003000000030000000300000003000000AF
:10311400030000000300000003000000030000009F
:10312400030000000300000003000000030000008F
:10313400030000000300000003000000030000007F
:10314400030000000300000003000000030000006F
:10315400030000000300000003000000030000005F
:1031640003000000640000000000000001000000F3
:10317400020000000300000004000000050000003D
:1031840006000000070000000A0000000B00000019
:103194000C0000000D0000000E0000000F000000F5
:1031A40010000000110000000300000007000000F0
:1031B40011000000030000000D00000011000000D9
:1031C400070000000D0000000200000007000000DE
:1031D40010000000020000000C00000010000000BD
:1031E400070000000C0000000100000007000000C0
:1031F4000F000000010000000B0000000F000000A1
:10320400070000000B0000000000000007000000A1
:103214000E000000000000000A0000000E00000084
:10322400070000000A000000030000000600000080
:103234000E000000030000000C0000000E0000005F
:10324400060000000C000000020000000600000060
:103254000F000000020000000D0000000F0000003D
:10326400060000000D000000010000000600000040
:1032740010000000010000000A000000100000001F
:10328400060000000A000000000000000600000024
:1032940011000000000000000B00000011000000FD
:1032A400060000000B000000030000000500000001
:1032B40010000000030000000B00000010000000DC
:1032C400050000000B0000000200000005000000E3
:1032D40011000000020000000A00000011000000BC
:1032E400050000000A0000000100000005000000C5
:1032F4000E000000010000000D0000000E000000A0
:10330400050000000D0000000000000005000000A2
:103314000F000000000000000C0000000F0000007F
:10332400050000000C000000030000000400000081
:103334000F000000030000000A0000000F0000005E
:10334400040000000A000000020000000400000065
:103354000E000000020000000B0000000E00000040
:10336400040000000B000000010000000400000045
:1033740011000000010000000C000000110000001A
:10338400040000000C000000000000000400000025
:1033940010000000000000000D00000010000000FC
:1033A400040000000D000000942B0A0850070020C0
:1033B4000000000000000000000000000000000009
:1033C40000000000000000000000000000000000F9
:1033D40000000000000000000000000000000000E9
:1033E40000000000000000000000000000000000D9
:1033F40000000000000000000000000000000000C9
:1034040000000000000000000000000000000000B8
:043414002D0D00205A
:10341800FFFFFFFF00000102030405060708090A71
:103428000B0C0D0E0F101112131415161718191A6C
:083438001B1C1D1E1F202800B3
:043440007856341274
:04000005080A001CC9
:00000001FF
