:02000004080AE8
:1000000000000A0854270A0800000600060005013F
:080010000402FE0800000000DC
:04001800901B0A0827
:10001C0009480A4908B5884205D0094A824202D0EB
:10002C00121A01F0D1FC0748074A0021121A01F0FC
:10003C00D9FC064808BD00BF00000020141D0A08AA
:10004C00180A0020180A0020A90F0020A90F002070
:10005C0070B501F0AFFB0025054E064CA41BA4089F
:10006C00A54200D170BD56F8043B98470135F7E71F
:10007C00F41C0A08101D0A0800F013B808B500F0AB
:10008C00A9FDBDE8084001F04DBB00F04FBF00F0EA
:10009C0055BF0078B0FA80F0400970470123037017
:1000AC0070477047F8B5174C174D236833B90323C5
:1000BC002360286800F097FD286003E0013B032BC8
:1000CC002360F6D00C232A6810495343CA18CD5824
:1000DC003021D2E9016723680D4A01FB032300217B
:1000EC001A46002001300428C2E90056976002F13C
:1000FC000C02F7D10131042903F1C003F0D1012026
:10010C00F8BD00BF300A0020180A002000000020B3
:10011C0080040020F0B5042185B00546002001F0D4
:10012C0096F804210290002001F091F81C4C0390E9
:10013C00206800F058FD206000941A49286803AB31
:10014C0002AA00F00BFFDDE9026103284FF00C005E
:10015C002468154D00FB04F405EB04032F59D3E977
:10016C0001544FF0300303FB06F300FB01330F4A3D
:10017C0013444FF000020AD10132042AC3E900757E
:10018C009C6003F1C003F7D1012005B0F0BD013232
:10019C00042AC3E900759C6003F1C003F7D1F3E7AF
:1001AC00180A0020A41B0A0800000020800400206C
:1001BC00F0B5042185B00546002001F048F8042173
:1001CC000290002001F043F81C4C0390206800F0D2
:1001DC000AFD206000941A49286803AB02AA00F0BB
:1001EC00BDFEDDE9026103284FF00C002468154DBB
:1001FC0000FB04F405EB04032F59D3E901544FF031
:10020C00C00303FB06F300FB01330F4A13444FF00A
:10021C0000020AD10132042AC3E900759C6003F183
:10022C003003F7D1012005B0F0BD0132042AC3E937
:10023C0000759C6003F13003F7D1F3E7180A002036
:10024C00A41B0A080000002080040020F0B5042143
:10025C0085B00546002000F0FAFF04210290002032
:10026C0000F0F5FF204C0390206800F0BCFC2060EF
:10027C0000941E49286803AB02AA00F06FFE0C2103
:10028C0023681B4D594303281A4A05EB0103DDE98A
:10029C00026015D16F58D3E90154C02303FB06F15A
:1002AC00302303FB0013134400220132042AC3E958
:1002BC0000759C6003F10C03F7D1012005B0F0BD73
:1002CC006D58D3E90141C0237343302606FB00333C
:1002DC00134400220132042AC3E90054996003F14B
:1002EC000C03F7D1E9E700BF180A0020A41B0A0889
:1002FC000000002080040020F8B5134C206800F0AA
:10030C0072FC0C2320605843104ADFF844C01318C9
:10031C0015580022D3E9016700210CEB02000346BB
:10032C0000240134042CC3E900569F6003F10C0334
:10033C00F7D10131042900F13000F0D1C032B2F50F
:10034C00407FE9D10120F8BD180A002000000020F0
:10035C00800400204FF496722DE9F84F00251A4BBB
:10036C00DFF86C901A60DFF86CA0184B00264FF089
:10037C000C0B5F193C464FF00008D9F8000008F14F
:10038C0001080BFB00F20AEB02015AF802200C34B4
:10039C0044F80C2C4A6844F8082C8A6844F8042C5D
:1003AC0000F021FCB8F1040F084BC9F80000E4D1AF
:1003BC000136042E07F13007DCD1C035B5F5407F8E
:1003CC00D4D10120BDE8F88F8007002080040020E4
:1003DC00180A0020000000200022042170B50B4EEA
:1003EC000020B418234600250135042DC3E9001163
:1003FC00996003F10C03F7D10130042804F13004A7
:10040C00F0D1C032B2F5407FEAD170BD800400203B
:10041C0038B500F025FC0E4C0E4D23682860C01A30
:10042C000D4B1B68984211D3FFF7D6FF2B680B4975
:10043C0023600B78072B1DBF09220133B3FBF2F2AB
:10044C0000231CBF02EBC2029B1A0B7038BD00BF0D
:10045C001C0A0020240A0020780000207C020020C6
:10046C002DE9F04300240126124B85B001AD93E831
:10047C00070085E80700DFF84090002709EB040827
:10048C0040460C22294601F091FA0137002808BF9A
:10049C000026042F08F13008F2D1C034B4F5407FA7
:1004AC00EBD126B105B0BDE8F043FFF795BF05B021
:1004BC00BDE8F083B01B0A08800400202DE9F04D44
:1004CC00FFF7CEFF0621002000F0C1FE304F314E69
:1004DC00314D05280ED8DFE800F00308454A505589
:1004EC003B68002B01DD013B03E03B68022BFADC8F
:1004FC0001333B600C2230212B683068534301FBE5
:10050C000033C0213868254C01FB0030D4F800A022
:10051C00DFF88C80DFF88CB002FB0A81584401F0C4
:10052C0045FA18B9504600F05EFB20603020316867
:10053C000C224143C0202B6824683F68534362431C
:10054C00784308EB02065D1858F802200544034472
:10055C004BF805200B4472685B445A60B2689A6091
:10056C00BDE8F08D3368002B01DD013B03E03368FF
:10057C00022BFADC01333360BCE72B68002B01DD66
:10058C00013B03E02B68022BFADC01332B60B1E753
:10059C002C0A0020300A0020340A0020180A0020FF
:1005AC0000000020800400202DE9F04F8DB009934D
:1005BC00169BCDE90A219942089040F38A8016A92E
:1005CC000BA800F022FB01230A9A0093179B9A4276
:1005DC0040F3818017A90AA800F017FB0123099AA0
:1005EC000193189B9A4278DD18A909A800F00DFB1D
:1005FC000123169C02930B9B179DE41A0A9B189ED1
:10060C00ED1A099BAC42A6EB030668DDB442A24688
:10061C00B8BFB2460027BB4606FB0AF3059305FBA1
:10062C000AF3069304FB0AF3CDE903770793039BC4
:10063C005345009B5DDA5146002B54D0079800F0CF
:10064C00D9FA0B9B514600EB0308019B002B4CD0B5
:10065C00069800F0CFFA0A9B514600EB0309029B67
:10066C00002B44D0059800F0C5FA0C21099BAB4433
:10067C00184401FB00F3302000FB09F9C02000FBFB
:10068C0008F80846089903EB090248432F494244ED
:10069C0001EB000C984408582D49DCF80430C14497
:1006AC0089448850C9F80430DCF808302744C9F86C
:1006BC000830039B01330393059B9B1B0593049B01
:1006CC0033440493069B5B1B0693079B1B1B0793EE
:1006DC00ADE7002378E7002381E7002389E7B542E3
:1006EC0094DDAA4696E73846A9E75846B1E7049840
:1006FC00B9E71BB116A90BA800F087FA019B1BB137
:10070C0017A90AA800F081FA029B1BB118A909A825
:10071C0000F07BFA302417990C206143C024169EFC
:10072C00189B7443089E43437043084F084A3E1875
:10073C005D183858234425440B44505113447268B7
:10074C005A60B2689A600DB0BDE8F08F00000020CE
:10075C00800400202DE9FF47FFF73EFE3D4B3E4F46
:10076C00196898460229CCBF0021013119603B68F9
:10077C000325022BC8BF00234FF000044FF0010AE1
:10078C004FF00209D8BF0133344E3B606B1A22463E
:10079C0030680093CDE901542346FFF705FFD8F8E4
:1007AC00001022466B1A30680093CDE9015A53466B
:1007BC00FFF7FAFED8F8001022466B1A3068009347
:1007CC00CDE901594B46FFF7EFFED8F80010224651
:1007DC006B1A30680093CDE901552B46FFF7E4FE08
:1007EC003A682946AB1ACDE9004330682346029497
:1007FC00FFF7DAFE3A682946AB1ACDE900433068B8
:10080C005346CDF808A0FFF7CFFE3A682946AB1A3D
:10081C00CDE9004330684B46CDF80890FFF7C4FE95
:10082C003A682946AB1ACDE9004330682B4602954D
:10083C00FFF7BAFE0A4A13680C2B07DD3068146008
:10084C0000F0D1F9306004B0BDE8F08701331360DB
:10085C00F9E700BF2C0A0020300A0020180A0020FB
:10086C00280A00202DE9F04FDFF8D0C0DFF8D08047
:10087C00DCF800102E4F2F4E0229C6464FF00C020A
:10088C003D68D8F8000033682B4C1BDC30267043D5
:10089C00C026534375434A43DFF8A8E01F187E195E
:1008AC000EEB02075EF802202B44A25103447A6837
:1008BC0023445A60BA6801319A60CCF800100120C8
:1008CC00BDE8F08F02FB03F130224FF0000902FB70
:1008DC0000FAC022CCF800904FF0040C6A4301EBF4
:1008EC000A0B93440A44013352442244032B44F828
:1008FC000BC03360C2E901CCE1DD022811DD022D11
:10090C0006DDC7F80090C8F80090C6F80090D6E74E
:10091C00032806DD0135C8F80090C6F800903D604C
:10092C00CDE70022034B01301A60CEF80000C6E779
:10093C002C0A0020340A002080040020180A002011
:10094C00300A0020880700201FB5C8222B4B1A60E4
:10095C0032222B4B1A604EF660222A4B1A602A4B1D
:10096C001B78082B13D8DFE803F01D054038152839
:10097C00302010006846254900F0D3FC6846FFF78C
:10098C0071FF684600F083FC01E0FFF7E3FE05B061
:10099C005DF804FB68461D4900F0C3FC6846FFF790
:1009AC00ABFCEEE7FFF78AFDF1E76846174900F06C
:1009BC00B8FC6846FFF74AFCE3E76846134900F0C9
:1009CC00B0FC6846FFF7A6FBDBE768460F4900F072
:1009DC00A8FC6846FFF7ECFBD3E768460B4900F030
:1009EC00A0FC6846FFF75EFBCBE76846074900F0C2
:1009FC0098FC6846FFF7AEFCC3E700BF80070020F9
:100A0C0084070020780000207C020020AE1B0A081E
:100A1C0038B50C4685B22846A4B2002100F046FF3A
:100A2C002046002100F042FF2846002100F04FFF35
:100A3C002046BDE83840002100F049BF80001BB1C2
:100A4C00012B0CD0074B00E0074B084402EB800253
:100A5C0003EBC201496853F83200FFF7D9BF034BCF
:100A6C00F3E700BF7C000020AC07002080020020D0
:100A7C0038B50D460446ADB2FFF7CAFFA4B22846FE
:100A8C00012100F013FF2046012100F00FFF284642
:100A9C00012100F01CFF2046BDE83840002100F089
:100AAC0016BF0000012B70B54FEA80000FD0022B4F
:100ABC0017D01A4E0844B3B902EB800206EBC203FE
:100ACC00596856F83200BDE87040FFF7D1BF144B9F
:100ADC00084402EB800203EBC201496853F8320070
:100AEC00F1E7104BF4E702EB800406EBC403596802
:100AFC0056F83400FFF78CFF094BE5005A1953F8F0
:100B0C0034005168FFF784FF064B1D44696853F8A5
:100B1C003400BDE87040FFF77BBF00BFAC0700207E
:100B2C00800200207C0000202DE9F84F0024194F92
:100B3C00002635464FF0000B06EB0708C2464FF077
:100B4C0003095A462946DAF800302046FFF7AAFF77
:100B5C00114B186800F07CF85A46294620465AF882
:100B6C00043BFFF76BFFB9F10109EAD10BF1010B63
:100B7C00BBF1040F08F10C08E0D10135042D06F18E
:100B8C003006D7D10134042C07F1C007D0D1BDE811
:100B9C00F88F00BF800400208407002070B500F09F
:100BAC005FF8094C094D0A4E206022682B683168A9
:100BBC00D31A8B4205D8FFF7B7FF00F051F820602D
:100BCC00F3E72A6070BD00BF240A0020200A002031
:100BDC008007002008B5FFF7B7FEFFF719FCBDE84A
:100BEC000840FFF7DBBF0A22431C93FBF2F002FB29
:100BFC0010307047400090FBF1F101F0010000292A
:100C0C00B8BF404200EB610070470A68036853406C
:100C1C0003600A6853400B600268534003607047DE
:100C2C0008B5024B1B685B6C019308BDD00106082C
:100C3C0008B5024B1B689B6C019308BDD0010608DC
:100C4C0008B5024B1B685B68019308BD9C01060844
:100C5C0008B5024B1B68DB68019308BD9C010608B4
:100C6C0008B5024B1B685B69019308BD9C01060823
:100C7C0008B5024B1B689B68019308BDB0010608C0
:100C8C0008B5024B1B68DB68019308BDB001060870
:100C9C0008B5024B1B681B69019308BDB00106081F
:100CAC0008B5024B1B681B6E019308BDAC0106080E
:100CBC0008B5024B1B685B6E019308BDAC010608BE
:100CCC0008B5024B1B689B6E019308BDAC0106086E
:100CDC0008B5024B1B68DB6E019308BDAC0106081E
:100CEC0008B5024B1B681B6F019308BDAC010608CD
:100CFC0008B5024B1B685B6F019308BDAC0106087D
:100D0C0008B5034B1B68D3F88030019308BD000075
:100D1C00AC01060808B5024B1B68DB69019308BDE2
:100D2C00B401060808B5024B1B681B6A019308BD89
:100D3C00B401060808B5024B1B689B69019308BDFA
:100D4C00C401060808B5024B1B685B6A019308BD19
:100D5C00C401060808B5024B1B689B6A019308BDC9
:100D6C00C401060808B5024B1B68DB6A019308BD79
:100D7C00C401060808B5024B1B681B6B019308BD28
:100D8C00C401060808B5024B1B685B6B019308BDD8
:100D9C00C401060808B5024B1B689B6B019308BD88
:100DAC00C401060808B5024B1B681B6C019308BDF7
:100DBC00C401060808B5024B1B681B68019308BDEB
:100DCC00D801060808B5024B1B681B69019308BDC6
:100DDC00D801060808B5024B1B685B69019308BD76
:100DEC00D801060808B5024B1B689B69019308BD26
:100DFC00D801060808B5024B1B68DB69019308BDD6
:100E0C00D801060808B5024B1B681B6A019308BD84
:100E1C00D801060808B5024B1B689B6C019308BDF2
:100E2C00C001060808B5024B1B685B68019308BD3E
:100E3C00A401060808B5034B1B68D3F89030019346
:100E4C0008BD0000A401060808B5034B1B68D3F8C5
:100E5C009C30019308BD0000A401060808B5024BA4
:100E6C001B68DB6B019308BDCC01060808B5024B6F
:100E7C001B685B68019308BDC801060808B5024BE6
:100E8C001B689B68019308BDC801060808B5024B96
:100E9C001B68DB68019308BDC801060808B5024B46
:100EAC001B681B69019308BDC801060808B5024BF5
:100EBC001B685B69019308BDC801060808B5024BA5
:100ECC001B689B69019308BDC801060808B5024B55
:100EDC001B68DB69019308BDC801060808B5024B05
:100EEC001B681B6A019308BDC801060808B5024BB4
:100EFC001B681B6B019308BDC801060808B5024BA3
:100F0C001B685B6B019308BDC801060808B5024B52
:100F1C001B681B6C019308BDC801060808B5024B81
:100F2C001B685B6C019308BDC801060808B5024B31
:100F3C001B681B68019308BDA001060808B5024B8D
:100F4C001B685B68019308BDA001060808B5024B3D
:100F5C001B689B68019308BDA001060808B5024BED
:100F6C001B685B69019308BDA001060808B5024B1C
:100F7C001B685B6C019308BDA00106087047F8B5AF
:100F8C00064615460C468F18BC4206D033683046D0
:100F9C009B6814F8011B9847F6E72846F8BD002219
:100FAC00007CFFF77DBE0021007CFFF781BE002195
:100FBC00007CFFF785BE0021007CFFF789BE002175
:100FCC00007CFFF78DBE10B50446142100F0E4FC44
:100FDC00204610BD10B54FF47A7304460846002124
:100FEC00C4E90113034B114623602074FFF788FEFC
:100FFC00204610BDC41B0A08704710B504461821C2
:10100C0000F0CAFC204610BDF8B50E46002400F1D5
:10101C000807051D17F8011D0A22304600F0EFF8ED
:10102C00AF42044401D12046F8BD002CF2D02E2151
:10103C00304600F0E1F80444ECE7000010B504463B
:10104C00044B1122002140F8043B00F0CBFC20465D
:10105C0010BD00BFEC1B0A080346074A10B543F845
:10106C00042B01F1100251F8044B914243F8044B4C
:10107C00F9D10A781A7010BDEC1B0A08024AC0E9B3
:10108C000021042202757047EC1B0A0810B59DF86C
:10109C00084044EA0324042344EA024444EA016479
:1010AC004460037510BD000037B5044D05609DF814
:1010BC0018500095FFF7EAFF03B030BDEC1B0A088F
:1010CC00014B024A1A607047380A0020F81B0A08C4
:1010DC00002340681A46FFF7C9BE0022022140686F
:1010EC00FFF7D4BE002240681146FFF7C7BE0022AE
:1010FC0040681146FFF7D2BE002340681A461946D5
:10110C00FFF7D4BE002340681A461946FFF7D6BE37
:10111C0000214068FFF7FABE00214068FFF7FEBED1
:10112C000022406881F00101FFF7D0BE0022406828
:10113C00FFF7DCBE002240681146FFF7DFBE00223D
:10114C0040681146FFF7CABE70B515468EB004460E
:10115C0008A8FFF773FF1122002103A800F042FC3E
:10116C000026284600F09EFC0A4B009681B25B6874
:10117C00284603AAFFF74EFE30B131462046FFF752
:10118C007DFF20460EB070BD204603A9FFF764FF1B
:10119C00F7E700BFBC0E0020024B034A1A60002286
:1011AC005A6070473C0A0020041C0A08F8B5064631
:1011BC000D4600248F18BD420CD0336830469B6816
:1011CC0015F8011B9847031E01DB1C44F3E7002CA8
:1011DC0008BF1C462046F8BD70B505460C460846AF
:1011EC0049B100F05FFC2B68024621462846BDE859
:1011FC007040DB68184770BD03689B681847002374
:10120C00012A98BF0A2230B58BB00C468DF82430D9
:10121C0009A92546B4FBF2F404FB1253DBB2092BEB
:10122C0094BF30333733DBB2AA4201F8013DF0D919
:10123C00FFF7D2FF0BB030BD10B5044628B100F05B
:10124C00FDFB90FBF4F303FB1404204610BD884215
:10125C0010B5044603DA081AFFF7EEFF04442046E3
:10126C0010BD00000022014B9A607047440A002018
:10127C0070B5002604460D4640F8086FFFF7D0FC09
:10128C0028462570FFF746FD2046666070BD10B5F8
:10129C0004460068FFF752FE204610BD10B5044608
:1012AC00006808B1FFF74AFE0023C4E9013323604C
:1012BC0010BD38B504460D4600680131FFF746FEF7
:1012CC0010B1C4E90005012038BD10B5036804460F
:1012DC0023B143688B4201D3012010BD2046FFF798
:1012EC00E8FF0028F9D0A368002BF5D12268137011
:1012FC00F2E770B50E46114604461546FFF7E5FFBA
:10130C0020B92046FFF7CAFF204670BD2A46314659
:10131C002068A56000F058FB00212268A368D15416
:10132C00F2E738B5002304460D46C0E9003383606C
:10133C00037339B1084600F0B5FB29460246204636
:10134C00FFF7D7FF204638BD02220020044B1A605D
:10135C00044B054A1860988098719A60FFF762BD3B
:10136C00600A0020540A00200000FFFF024B1A689C
:10137C00024B1A60704700BFAC090020640A0020C1
:10138C00704741747047704708B5007CFFF70AFD41
:10139C0020EAE07008BD08B5007CFFF7DBFC20EA12
:1013AC00E07008BD08B5007CFFF7E4FC40EAE07093
:1013BC0008BD08B5007CFFF7D5FC40EAE07008BD1D
:1013CC00007CFFF7DFBC70B5467C04460D462EB1A1
:1013DC002946207CBDE87040FFF7B4BC007CFFF7C9
:1013EC00E1FC0028F4DC304670BD10B50446142135
:1013FC0000F0D2FA204610BD4FF0000C10B5044698
:10140C00084611464FF47A72C4E901C2044A2074AA
:10141C002260012262741A46FFF78CFC204610BD34
:10142C005C1C0A0838B50C4D2978BFF35B8F11F0A2
:10143C0001040FD12846FEF72CFE58B12146074B6C
:10144C00074A0848FFF7D8FF2846FEF727FE06484C
:10145C0000F0A6FA034838BD680A0020F00A002004
:10146C006C0A0020740B002093130A084174704717
:10147C007047704708B50021007CFFF7B3FC40EAC9
:10148C00E07008BD08B50121007CFFF7ABFC40EA19
:10149C00E07008BD08B5007CFFF79CFC20EAE0700A
:1014AC0008BD08B5007CFFF78DFC20EAE07008BD94
:1014BC0038B50446007C0D46FFF78CFC002801DC97
:1014CC00607C28B12946207CFFF794FC20EAE07070
:1014DC0038BD007CFFF796BC10B50446142100F013
:1014EC005BFA204610BD704710B54FF47A73044672
:1014FC0008460021C4E90113044B20742360012326
:10150C0011466374FFF756FC204610BD8C1C0A086C
:10151C0010B504461422002100F064FA054B204655
:10152C006360054BE36040F2011323818123238226
:10153C0010BD00BFB80B0020B90C002030B50E4D0B
:10154C0087B001A8FFF7E4FF2978BFF35B8F11F098
:10155C0001040ED12846FEF79CFD50B1214601AA8C
:10156C000648FFF7C1FF2846FEF798FD044800F037
:10157C0017FA024807B030BD880B0020900B0020F2
:10158C007D140A0810B504461422002100F02AFA32
:10159C00054B20466360054BE36040F20113238149
:1015AC008123238210BD00BF3A0D00203B0E00208A
:1015BC0010B50E4C86B001A8FFF7E4FF2378BFF3FB
:1015CC005B8FDB070ED42046FEF763FD50B1012183
:1015DC0001AA0748FFF788FF2046FEF75FFD054884
:1015EC0000F0DEF9024806B010BD00BF8C0B0020E5
:1015FC00A40B0020F3140A08002240681146FFF7E0
:10160C004DBCF0B5154689B011220E46044600219A
:10161C0003A800F0E7F9284600F044FA002781B24D
:10162C0073682846009703AAFFF7F4FB30B13946DC
:10163C002046FFF723FD204609B0F0BD204603A944
:10164C00FFF70AFDF7E7002240681146FFF746BC9A
:10165C00002240681146FFF751BC00224068FFF79A
:10166C0045BC0022406881F00101FFF72FBC00232C
:10167C0040681A461946FFF721BC002340681A46F9
:10168C001946FFF713BC002240681146FFF7F6BB62
:10169C00002202214068FFF7F9BB002340681A467C
:1016AC00FFF7E4BB0422024B5A60024A1A607047EF
:1016BC00BC0E0020BC1C0A08014B1860704700BF10
:1016CC00B009002008B5134B43B1FFF737FF03688F
:1016DC001B699847002801DDAFF300800E4B43B126
:1016EC00FFF7A0FE03681B699847002801DDAFF3E4
:1016FC0000800A4B0BB1AFF30080094B43B1FFF7ED
:10170C0057FF03681B699847002801DDAFF3008081
:10171C0008BD00BF00000000000000000000000039
:10172C000000000008B5FFF7CDFFFFF799FA014B59
:10173C00186008BDDC0E00200548064A08B5121AD0
:10174C00054900F041F9054B054A1A6008BD00BF78
:10175C000040024004400240101D0A0800400240B4
:10176C001E1C279A002307B51A466FF077010093C9
:10177C00FFF76AFB03B05DF804FB000007B5438874
:10178C000A2B08D0502B0BD1094B1B684BB103B063
:10179C005DF804EB1847FFF7E5FF03B05DF804FBB9
:1017AC0000231A466FF077010093FFF74DFBF4E727
:1017BC00C80E0020002110B51148FFF7D7FB114BC4
:1017CC001A68114B9A420CBF012200220F4B1A705F
:1017DC0001D0FFF7B1FFFFF733FA044600F00AF926
:1017EC000B4B13B12046AFF3008000210848FFF7E4
:1017FC0035FBBDE8104000210648FFF71BBB00BFBE
:10180C00C5160A08004002401E1C279AC40E002070
:10181C000000000089170A08024B986808B1FFF70E
:10182C0007BA7047D00E0020172870B5044601D9AE
:10183C00002070BDA0F10D03022B0BD9012824D878
:10184C0000F078F80021007CFFF752FA80F00100DC
:10185C00C0B2EEE7124E3178BFF35B8F11F0010589
:10186C000DD13046FEF715FC48B129460D48FFF75F
:10187C00FFFC3046FEF712FC0B4800F091F8094BC8
:10188C001878FFF74FFA0028D2D1123C012C05D85A
:10189C00FFF7C8FD007CFFF77DFAD7E70120C8E70A
:1018AC00CC0E0020D00E002025180A08172838B5B9
:1018BC0004460D460AD8FF2908D0FFF7B5FF28B11A
:1018CC0029462046BDE83840FFF7D2B938BD38B5B7
:1018DC0004460D46FFF7D4F9FF2810D0062804D88B
:1018EC004D2323FA00F0C30709D42046FFF79CFFD1
:1018FC0028B129462046BDE83840FFF7C9B938BDA4
:10190C0070470000002370B5202543801423084E37
:10191C0004460380314685600561284600F03EF898
:10192C0031466060284600F039F8E060204670BD12
:10193C00F01C0A0830B50E4D87B02978BFF35B8FC9
:10194C0011F0010411D12846FEF7A3FB68B101A8E0
:10195C00FFF7D8FF214601AA0648FFF73BFB2846B4
:10196C00FEF79CFB044800F01BF8024807B030BDA2
:10197C00E00E0020E40E00200D190A08002307B524
:10198C001A46194600930348FFF78EFB03B05DF827
:10199C0004FB00BFF80E0020FEF779BBFEF775BB09
:1019AC00002301461A46184600F084B830B50024CE
:1019BC000139A24201D1002005E0035D01340D5D27
:1019CC00AB42F6D0581B30BD0A44914200F1FF33B4
:1019DC0000D1704710B511F8014B914203F8014F3B
:1019EC00F9D110BD03460244934200D1704703F86D
:1019FC00011BF9E738B50D4B04461D68AB6B7BB981
:101A0C001820FFF793FA0A4A0A4BA863C0E900238F
:101A1C00094B012283600B2383810023C0E904233B
:101A2C000022AB6B1C615A6138BD00BFB0090020AD
:101A3C000E33CDAB34126DE6ECDE0500134B10B556
:101A4C001C68A36B7BB91820FFF770FA104A114B76
:101A5C00A063C0E90023104B012283600B23838118
:101A6C000023C0E90423A16B0C480A694B6950435D
:101A7C000B4C04FB0300A2FB04345A1C044444F139
:101A8C000000C1E9042020F0004010BDB009002086
:101A9C000E33CDAB34126DE6ECDE05002DF451584F
:101AAC002D7F954C034613F8012B002AFBD1181AF5
:101ABC00013870472DE9F843DFF8BC800646D8F8AA
:101ACC0000001F460D46914600F058F8264B1C6846
:101ADC0034B9264C1C60264B13B11B68C4F88830F3
:101AEC0063681F2B07DDD8F8000000F049F84FF0B1
:101AFC00FF30BDE8F8835EB3D4F8880088B91D4B7D
:101B0C0023B9D8F8000000F03AF8F0E74FF48470ED
:101B1C00FFF70CFA0028F4D00023C0E94033C4F8D6
:101B2C00880001226368022E40F8239002FA03F227
:101B3C0000EB8301D0F8003143EA0203C0F8003116
:101B4C00C1F8807002BFD0F804311A43C0F80421E8
:101B5C006368D8F800005A1C0233626044F82350C2
:101B6C0000F00EF80020C4E79C0F0020100F00209E
:101B7C0000000000390F0A08140A00207047704753
:101B8C00704700001D000A085D000A0885000A085D
:101B9C0089000A080000000025642C2025642C20F4
:101BAC002564000004000000040000000400000094
:101BBC000000000000000000890F0A08D30F0A087B
:101BCC00AB0F0A088B0F0A08B30F0A08BB0F0A08E1
:101BDC00C30F0A08CB0F0A08000000000000000029
:101BEC0015100A0805100A0807100A086170700021
:101BFC000000000000000000DD100A08E7100A08D1
:101C0C00F1100A08FB100A0805110A0811110A083C
:101C1C001D110A0825110A082D110A0839110A0884
:101C2C0041110A084B110A0855110A0825592D258E
:101C3C006D2D25645425483A254D3A2553257A00B7
:101C4C0061736374696D65000000000000000000A2
:101C5C008D130A08F7130A08D3130A08B9110A08D6
:101C6C00A3130A08BF130A08B1130A08CD130A08F4
:101C7C008F130A0895130A080000000000000000EA
:101C8C007F140A08E5140A08BD140A08B9110A08D9
:101C9C00AF140A0881140A0891140A08DF140A0800
:101CAC00A1140A0879140A080000000000000000C2
:101CBC00A7160A089D160A0893160A0805160A089C
:101CCC0087160A087B160A081D110A0825110A082E
:101CDC006F160A0867160A085D160A0853160A08D2
:101CEC000F160A0800000000CD100A08A5110A08FA
:101CFC0071120A0855130A0879130A08B1160A0852
:041D0C0089190A081F
:041D100000000000CF
:101D140000000000000000000100000000000000BE
:101D240001000000010000000100000001000000AB
:101D3400010000000100000001000000020000009A
:101D44000100000002000000020000000200000088
:101D54000200000002000000000000000200000079
:101D6400020000000000000000000000020000006B
:101D7400000000000000000000000000000000005F
:101D8400010000000200000060EA000003000000FF
:101D940011000000110000000D0000000D00000003
:101DA400070000000700000003000000020000001C
:101DB40010000000100000000C0000000C000000E7
:101DC40007000000070000000200000001000000FE
:101DD4000F0000000F0000000B0000000B000000CB
:101DE40007000000070000000100000000000000E0
:101DF4000E0000000E0000000A0000000A000000AF
:101E040007000000070000000000000003000000BD
:101E14000E0000000E0000000C0000000C0000008A
:101E2400060000000600000003000000020000009D
:101E34000F0000000F0000000D0000000D00000066
:101E4400060000000600000002000000010000007F
:101E540010000000100000000A0000000A0000004A
:101E64000600000006000000010000000000000061
:101E740011000000110000000B0000000B00000026
:101E8400060000000600000000000000030000003F
:101E940010000000100000000B0000000B00000008
:101EA400050000000500000003000000020000001F
:101EB40011000000110000000A0000000A000000E8
:101EC4000500000005000000020000000100000001
:101ED4000E0000000E0000000D0000000D000000C8
:101EE40005000000050000000100000000000000E3
:101EF4000F0000000F0000000C0000000C000000A8
:101F040005000000050000000000000003000000C0
:101F14000F0000000F0000000A0000000A0000008B
:101F240004000000040000000300000002000000A0
:101F34000E0000000E0000000B0000000B0000006B
:101F44000400000004000000020000000100000082
:101F540011000000110000000C0000000C00000043
:101F64000400000004000000010000000000000064
:101F740010000000100000000D0000000D00000023
:101F84000400000004000000000000000200000043
:101F9400030000000D000000110000000700000015
:101FA4000D00000003000000070000001100000005
:101FB400020000000C0000001000000007000000F8
:101FC4000C000000020000000700000010000000E8
:101FD400010000000B0000000F00000007000000DB
:101FE4000B00000001000000070000000F000000CB
:101FF400000000000A0000000E00000007000000BE
:102004000A00000000000000070000000E000000AD
:10201400030000000C0000000E0000000600000099
:102024000C00000003000000060000000E00000089
:10203400020000000D0000000F0000000600000078
:102044000D00000002000000060000000F00000068
:10205400010000000A00000010000000060000005B
:102064000A0000000100000006000000100000004B
:10207400000000000B00000011000000060000003A
:102084000B0000000000000006000000110000002A
:10209400030000000B000000100000000500000019
:1020A4000B00000003000000050000001000000009
:1020B400020000000A0000001100000005000000FA
:1020C4000A000000020000000500000011000000EA
:1020D400010000000D0000000E00000005000000DB
:1020E4000D00000001000000050000000E000000CB
:1020F400000000000C0000000F00000005000000BC
:102104000C00000000000000050000000F000000AB
:10211400030000000A0000000F000000040000009B
:102124000A00000003000000040000000F0000008B
:10213400020000000B0000000E000000040000007C
:102144000B00000002000000040000000E0000006C
:10215400010000000C000000110000000400000059
:102164000C00000001000000040000001100000049
:10217400000000000D00000010000000040000003A
:102184000D0000000000000004000000100000002A
:10219400040000000400000004000000040000002B
:1021A400040000000400000004000000040000001B
:1021B400040000000400000004000000040000000B
:1021C40004000000040000000400000004000000FB
:10249400C80000000A000000000000000000000066
:1024A4000000000001000000010000000100000025
:1024B400020000000200000002000000030000000F
:1024C4000700000011000000030000000D000000E0
:1024D40011000000070000000D00000002000000D1
:1024E4000700000010000000020000000C000000C3
:1024F40010000000070000000C00000001000000B4
:10250400070000000F000000010000000B000000A5
:102514000F000000070000000B0000000000000096
:10252400070000000E000000000000000A00000088
:102534000E000000070000000A0000000300000075
:10254400060000000E000000030000000C00000064
:102554000E000000060000000C0000000200000055
:10256400060000000F000000020000000D00000043
:102574000F000000060000000D0000000100000034
:102584000600000010000000010000000A00000026
:1025940010000000060000000A0000000000000017
:1025A4000600000011000000000000000B00000005
:1025B40011000000060000000B00000003000000F2
:1025C4000500000010000000030000000B000000E4
:1025D40010000000050000000B00000002000000D5
:1025E4000500000011000000020000000A000000C5
:1025F40011000000050000000A00000001000000B6
:10260400050000000E000000010000000D000000A5
:102614000E000000050000000D0000000000000096
:10262400050000000F000000000000000C00000086
:102634000F000000050000000C0000000300000073
:10264400040000000F000000030000000A00000066
:102654000F000000040000000A0000000200000057
:10266400040000000E000000020000000B00000047
:102674000E000000040000000B0000000100000038
:102684000400000011000000010000000C00000024
:1026940011000000040000000C0000000000000015
:1026A4000400000010000000000000000D00000005
:1026B40010000000040000000D0000004C1C0A087B
:1026C400B409002000000000000000000000000029
:1026D40000000000000000000000000000000000F6
:1026E40000000000000000000000000000000000E6
:1026F40000000000000000000000000000000000D6
:1027040000000000000000000000000000000000C5
:1027140000000000000000000000000000000000B5
:0827240000000000A10F0020DD
:10272C00FFFFFFFF00000102030405060708090A6A
:10273C000B0C0D0E0F101112131415161718191A65
:08274C001B1C1D1E1F202800AC
:04275400785634126D
:04000005080A001CC9
:00000001FF
