:02000004080AE8
:1000000000000A0820270A08000006000600050173
:080010000402FE0800000000DC
:04001800741B0A0843
:10001C0009480A4908B5884205D0094A824202D0EB
:10002C00121A01F0C3FC0748074A0021121A01F00A
:10003C00CBFC064808BD00BF00000020041D0A08C8
:10004C00F4090020F4090020810F0020810F00200A
:10005C0070B501F0A1FB0025054E064CA41BA408AD
:10006C00A54200D170BD56F8043B98470135F7E71F
:10007C00D81C0A08F41C0A0800F013B808B500F0E4
:10008C009BFDBDE8084001F03FBB00F041BF00F014
:10009C0047BF0078B0FA80F0400970470123037025
:1000AC007047704770B51849184A0B684BB9032351
:1000BC000B601368082BCCBF0023013313600323A0
:1000CC0003E0013B032B0B60F3D011680C224A4375
:1000DC000F488118D1E90156302184580D4A01FB93
:1000EC00032300211A46002001300428C2E90045F0
:1000FC00966002F10C02F7D10131042903F1C0031F
:10010C00F0D1012070BD00BF080A0020F4090020C6
:10011C000000002080040020F0B5042185B00546C5
:10012C00002001F086F8224C04210290002001F0FE
:10013C0080F823681F49082BCCBF002301332360B0
:10014C000094039003AB286802AA00F0F9FEDDE9E5
:10015C0002610C2303282068174D03FB00F005EB0C
:10016C0000042F58154A656811D15943302303FBFD
:10017C00061313440022A0680132042AC3E9007557
:10018C00986003F1C003F7D1012005B0F0BD302019
:10019C00704303FB010313440022A4680132042AB8
:1001AC00C3E900759C6003F1C003F7D1ECE700BF15
:1001BC00F4090020881B0A0800000020800400209D
:1001CC00F0B5042185B00546002001F032F8224C30
:1001DC0004210290002001F02CF823681F49082B01
:1001EC00CCBF0023013323600094039003AB286839
:1001FC0002AA00F0A5FEDDE902610C2303282068A9
:10020C00174D03FB00F005EB00042F58154A6568E9
:10021C0011D15943C02303FB061313440022A068D9
:10022C000132042AC3E90075986003F13003F7D159
:10023C00012005B0F0BDC020704303FB0103134443
:10024C000022A4680132042AC3E900759C6003F102
:10025C003003F7D1ECE700BFF4090020881B0A0833
:10026C0000000020800400207FB5054604210020FA
:10027C0000F0DFFF214C04210290002000F0D9FF98
:10028C0023681F49082BCCBF002301332360009443
:10029C00039003AB286802AA00F052FE0C212368DD
:1002AC00184D5943032805EB0103174A6D58DDE936
:1002BC000260D3E9014111D130235843C02303FB21
:1002CC000603134400220132042AC3E90054996046
:1002DC0003F10C03F7D1012004B070BDC0237343AC
:1002EC00302606FB0033134400220132042AC3E9F2
:1002FC000054996003F10C03F7D1ECE7F4090020EA
:10030C00881B0A080000002080040020F0B5144A65
:10031C0014491368DFF850C0082BCCBF00230133FD
:10032C0013600C225343CA18D2E901670022CD583E
:10033C0000210CEB0200034600240134042CC3E919
:10034C0000569F6003F10C03F7D10131042900F131
:10035C003000F0D1C032B2F5407FE9D10120F0BDC0
:10036C00F409002000000020800400202DE9F04357
:10037C0000204FF00C091749DFF85C800B68DFF8A0
:10038C005CC0002408EB00052A460026082BCCBFD5
:10039C000023013309FB03F70CEB070E5CF8077025
:1003AC0001361760DEF80470042E5760DEF8087012
:1003BC0002F10C0242F8047CE8D10134042C05F162
:1003CC003005E1D1C030B0F5407FDAD10B600120AF
:1003DC00BDE8F083F4090020800400200000002018
:1003EC000022042170B50B4E0020B41823460025C2
:1003FC000135042DC3E90011996003F10C03F7D109
:10040C000130042804F13004F0D1C032B2F5407F41
:10041C00EAD170BD8004002038B500F013FC0D4DFE
:10042C000D4A2B681268C31A9342044610D3FFF787
:10043C00D7FF0A492C600B78072B1DBF092201330B
:10044C00B3FBF2F200231CBF02EBC2029B1A0B702F
:10045C0038BD00BFF8090020780000207C02002085
:10046C002DE9F04300240126124B85B001AD93E831
:10047C00070085E80700DFF84090002709EB040827
:10048C0040460C22294601F083FA0137002808BFA8
:10049C000026042F08F13008F2D1C034B4F5407FA7
:1004AC00EBD126B105B0BDE8F043FFF799BF05B01D
:1004BC00BDE8F083941B0A08800400202DE9F04766
:1004CC00FFF7CEFF0621002000F0B3FE314C32497D
:1004DC00324A05280ED8DFE800F00308464B515687
:1004EC002368002B01DD013B03E02368022BFADCBF
:1004FC0001332360276814680C22302002FB04F3BC
:10050C00D1F80080DFF8A09000FB0833C02000FB7E
:10051C000730D9F800A0224E224D02FB0A61284474
:10052C0001F036FA30B9BAF1080FD8BF0AF1010060
:10053C00C9F8000030220C2302FB08F8C022D9F8BD
:10054C0000005C435743434304EB0801CA19F118FC
:10055C00F3583C44AB5044444B682C4463608B6868
:10056C00A360BDE8F0870B68002B01DD013B03E0C5
:10057C000B68022BFADC01330B60BBE71368002B12
:10058C0001DD013B03E01368022BFADC013313603D
:10059C00B0E700BF040A0020080A00200C0A002063
:1005AC000000002080040020F40900202DE9F04F09
:1005BC008DB00993169BCDE90A219942089040F31E
:1005CC008A8016A90BA800F012FB01230A9A00934B
:1005DC00179B9A4240F3818017A90AA800F007FBE9
:1005EC000123099A0193189B9A4278DD18A909A84E
:1005FC0000F0FDFA0123169C02930B9B179DE41A45
:10060C000A9B189EED1A099BAC42A6EB030668DD0B
:10061C00B442A246B8BFB2460027BB4606FB0AF35B
:10062C00059305FB0AF3069304FB0AF3CDE9037764
:10063C000793039B5345009B5DDA5146002B54D026
:10064C00079800F0C9FA0B9B514600EB0308019B7D
:10065C00002B4CD0069800F0BFFA0A9B514600EBD9
:10066C000309029B002B44D0059800F0B5FA0C212D
:10067C00099BAB44184401FB00F3302000FB09F943
:10068C00C02000FB08F80846089903EB0902484310
:10069C002F49424401EB000C984408582D49DCF8D2
:1006AC000430C14489448850C9F80430DCF808305F
:1006BC002744C9F80830039B01330393059B9B1B0C
:1006CC000593049B33440493069B5B1B0693079B87
:1006DC001B1B0793ADE7002378E7002381E700237A
:1006EC0089E7B54294DDAA4696E73846A9E758460D
:1006FC00B1E70498B9E71BB116A90BA800F077FA7B
:10070C00019B1BB117A90AA800F071FA029B1BB13F
:10071C0018A909A800F06BFA302417990C20614332
:10072C00C024169E189B7443089E43437043084F85
:10073C00084A3E185D183858234425440B44505140
:10074C00134472685A60B2689A600DB0BDE8F08FBD
:10075C0000000020800400202DE9FF47FFF740FE39
:10076C003D4B3E4F196898460229CCBF0021013100
:10077C0019603B680325022BC8BF00234FF000040F
:10078C004FF0010A4FF00209D8BF0133344E3B60E1
:10079C006B1A2246CDE90154306800932346FFF7CB
:1007AC0005FFD8F8001022466B1ACDE9015A3068C3
:1007BC0000935346FFF7FAFED8F8001022466B1A46
:1007CC00CDE90159306800934B46FFF7EFFED8F89E
:1007DC00001022466B1ACDE90155306800932B4668
:1007EC00FFF7E4FE3A682946AB1ACDE900433068BE
:1007FC0023460294FFF7DAFE3A682946AB1ACDE994
:10080C00004330685346CDF808A0FFF7CFFE3A6896
:10081C002946AB1ACDE9004330684B46CDF8089019
:10082C00FFF7C4FE3A682946AB1ACDE9004302959E
:10083C002B460C4D3068FFF7B9FE2B680A2B04DDF4
:10084C0030682C6000F0C1F930602B6801332B60EC
:10085C0004B0BDE8F08700BF040A0020080A00209D
:10086C00F4090020000A00202DE9F04F344FDFF886
:10087C00DC903E68DFF8D8E0DFF8CCC0092EC84623
:10088C004FF00C024FF0300ADEF80050D9F800009F
:10089C00DCF800302B4C1EDC0AFB00F1C02053436B
:1008AC0045437243DFF8ACE003EB010C0CEB0500A5
:1008BC000EEB020C5EF802202B4422500B44DCF8A9
:1008CC00042023445A60DCF8082001369A603E600C
:1008DC000120BDE8F08F0AFB00F14FF0C00A5A432B
:1008EC000AFB05FA02EB010B0426524411440022C8
:1008FC000133D34444F80B60032B0C44C4E9016668
:10090C003A60CCF80030E3DD022812DD022D06DD62
:10091C00CEF80020C9F80020CCF80020D8E7032836
:10092C0007DD0135C9F80020CCF80020CEF80050C6
:10093C00CEE70022044B01301A60C8F80000C7E76C
:10094C00F4090020800400200C0A0020080A002072
:10095C00040A0020000000201FB5274B1B78082B31
:10096C0013D8DFE803F01D0540381528302010009F
:10097C006846224900F0C7FC6846FFF775FF6846D9
:10098C0000F077FC01E0FFF7E7FE05B05DF804FB33
:10099C0068461A4900F0B7FC6846FFF7B7FCEEE76B
:1009AC00FFF78CFDF1E76846144900F0ACFC684693
:1009BC00FFF75AFCE3E76846104900F0A4FC6846D0
:1009CC00FFF7AAFBDBE768460C4900F09CFC684685
:1009DC00FFF7F6FBD3E76846084900F094FC68463D
:1009EC00FFF760FBCBE76846044900F08CFC6846D7
:1009FC00FFF7BCFCC3E700BF7C020020921B0A0877
:100A0C0038B50C4685B22846A4B2002100F040FF50
:100A1C002046002100F03CFF2846002100F049FF51
:100A2C002046BDE83840002100F043BF80001BB1D8
:100A3C00012B0CD0074B00E0074B084402EB800263
:100A4C0003EBC201496853F83200FFF7D9BF034BDF
:100A5C00F3E700BF7C000020880700208002002004
:100A6C0038B50D460446ADB2FFF7CAFFA4B228460E
:100A7C00012100F00DFF2046012100F009FF28465E
:100A8C00012100F016FF2046BDE83840002100F09F
:100A9C0010BF0000012B70B54FEA80000FD0022B65
:100AAC0017D01A4E0844B3B902EB800206EBC2030E
:100ABC00596856F83200BDE87040FFF7D1BF144BAF
:100ACC00084402EB800203EBC201496853F8320080
:100ADC00F1E7104BF4E702EB800406EBC403596812
:100AEC0056F83400FFF78CFF094BE5005A1953F800
:100AFC0034005168FFF784FF064B1D44696853F8B6
:100B0C003400BDE87040FFF77BBF00BF88070020B2
:100B1C00800200207C0000202DE9F84F0024194FA2
:100B2C00002635464FF0000B06EB0708C2464FF087
:100B3C0003095A462946DAF800302046FFF7AAFF87
:100B4C00114B186800F076F85A46294620465AF898
:100B5C00043BFFF76BFFB9F10109EAD10BF1010B73
:100B6C00BBF1040F08F10C08E0D10135042D06F19E
:100B7C003006D7D10134042C07F1C007D0D1BDE821
:100B8C00F88F00BF800400208407002038B500F0E7
:100B9C0059F8074C074D23682A68C31A934204D8A6
:100BAC00FFF7BAFF00F04EF8F5E7206038BD00BF44
:100BBC00FC0900208007002008B5FFF7CDFEFFF7E9
:100BCC002BFCBDE80840FFF7E1BF0A22431C93FB56
:100BDC00F2F002FB10307047400090FBF1F101F095
:100BEC0001000029B8BF404200EB610070470A6861
:100BFC000368534003600A6853400B60026853401B
:100C0C000360704708B5024B1B685B6C019308BD11
:100C1C00D001060808B5024B1B689B6C019308BDFC
:100C2C00D001060808B5024B1B685B68019308BD30
:100C3C009C01060808B5024B1B68DB68019308BDD4
:100C4C009C01060808B5024B1B685B69019308BD43
:100C5C009C01060808B5024B1B689B68019308BDF4
:100C6C00B001060808B5024B1B68DB68019308BD90
:100C7C00B001060808B5024B1B681B69019308BD3F
:100C8C00B001060808B5024B1B681B6E019308BD2A
:100C9C00AC01060808B5024B1B685B6E019308BDDE
:100CAC00AC01060808B5024B1B689B6E019308BD8E
:100CBC00AC01060808B5024B1B68DB6E019308BD3E
:100CCC00AC01060808B5024B1B681B6F019308BDED
:100CDC00AC01060808B5024B1B685B6F019308BD9D
:100CEC00AC01060808B5034B1B68D3F880300193A0
:100CFC0008BD0000AC01060808B5024B1B68DB6997
:100D0C00019308BDB401060808B5024B1B681B6AA9
:100D1C00019308BDB401060808B5024B1B689B691A
:100D2C00019308BDC401060808B5024B1B685B6A39
:100D3C00019308BDC401060808B5024B1B689B6AE9
:100D4C00019308BDC401060808B5024B1B68DB6A99
:100D5C00019308BDC401060808B5024B1B681B6B48
:100D6C00019308BDC401060808B5024B1B685B6BF8
:100D7C00019308BDC401060808B5024B1B689B6BA8
:100D8C00019308BDC401060808B5024B1B681B6C17
:100D9C00019308BDC401060808B5024B1B681B680B
:100DAC00019308BDD801060808B5024B1B681B69E6
:100DBC00019308BDD801060808B5024B1B685B6996
:100DCC00019308BDD801060808B5024B1B689B6946
:100DDC00019308BDD801060808B5024B1B68DB69F6
:100DEC00019308BDD801060808B5024B1B681B6AA5
:100DFC00019308BDD801060808B5024B1B689B6C13
:100E0C00019308BDC001060808B5024B1B685B685E
:100E1C00019308BDA401060808B5034B1B68D3F861
:100E2C009030019308BD0000A401060808B5034BDF
:100E3C001B68D3F89C30019308BD0000A401060880
:100E4C0008B5024B1B68DB6B019308BDCC0106088F
:100E5C0008B5024B1B685B68019308BDC801060806
:100E6C0008B5024B1B689B68019308BDC8010608B6
:100E7C0008B5024B1B68DB68019308BDC801060866
:100E8C0008B5024B1B681B69019308BDC801060815
:100E9C0008B5024B1B685B69019308BDC8010608C5
:100EAC0008B5024B1B689B69019308BDC801060875
:100EBC0008B5024B1B68DB69019308BDC801060825
:100ECC0008B5024B1B681B6A019308BDC8010608D4
:100EDC0008B5024B1B681B6B019308BDC8010608C3
:100EEC0008B5024B1B685B6B019308BDC801060873
:100EFC0008B5024B1B681B6C019308BDC8010608A2
:100F0C0008B5024B1B685B6C019308BDC801060851
:100F1C0008B5024B1B681B68019308BDA0010608AD
:100F2C0008B5024B1B685B68019308BDA00106085D
:100F3C0008B5024B1B689B68019308BDA00106080D
:100F4C0008B5024B1B685B69019308BDA00106083C
:100F5C0008B5024B1B685B6C019308BDA001060829
:100F6C007047F8B5064615460C468F18BC4206D09D
:100F7C00336830469B6814F8011B9847F6E72846FF
:100F8C00F8BD0022007CFFF77DBE0021007CFFF73E
:100F9C0081BE0021007CFFF785BE0021007CFFF79D
:100FAC0089BE0021007CFFF78DBE10B504461421CC
:100FBC0000F0E4FC204610BD10B54FF47A730446E3
:100FCC0008460021C4E90113034B11462360207429
:100FDC00FFF788FE204610BDA81B0A08704710B505
:100FEC000446182100F0CAFC204610BDF8B50E4688
:100FFC00002400F10807051D17F8011D0A223046D0
:10100C0000F0EFF8AF42044401D12046F8BD002CAB
:10101C00F2D02E21304600F0E1F80444ECE7000059
:10102C0010B50446044B1122002140F8043B00F09B
:10103C00CBFC204610BD00BFD01B0A080346074A54
:10104C0010B543F8042B01F1100251F8044B9142F6
:10105C0043F8044BF9D10A781A7010BDD01B0A085A
:10106C00024AC0E90021042202757047D01B0A080D
:10107C0010B59DF8084044EA0324042344EA0244D2
:10108C0044EA01644460037510BD000037B5044D9B
:10109C0005609DF818500095FFF7EAFF03B030BDCE
:1010AC00D01B0A08014B024A1A607047100A002034
:1010BC00DC1B0A08002340681A46FFF7C9BE002251
:1010CC0002214068FFF7D4BE002240681146FFF7AA
:1010DC00C7BE002240681146FFF7D2BE002340680D
:1010EC001A461946FFF7D4BE002340681A46194623
:1010FC00FFF7D6BE00214068FFF7FABE002140681A
:10110C00FFF7FEBE0022406881F00101FFF7D0BE60
:10111C0000224068FFF7DCBE002240681146FFF752
:10112C00DFBE002240681146FFF7CABE70B51546F7
:10113C008EB0044608A8FFF773FF1122002103A804
:10114C0000F042FC0026284600F09EFC0A4B00965C
:10115C0081B25B68284603AAFFF74EFE30B13146D8
:10116C002046FFF77DFF20460EB070BD204603A938
:10117C00FFF764FFF7E700BF940E0020024B034A11
:10118C001A6000225A607047140A0020E81B0A08F3
:10119C00F8B506460D4600248F18BD420CD03368B6
:1011AC0030469B6815F8011B9847031E01DB1C4455
:1011BC00F3E7002C08BF1C462046F8BD70B5054669
:1011CC000C46084649B100F05FFC2B6802462146EC
:1011DC002846BDE87040DB68184770BD03689B6803
:1011EC0018470023012A98BF0A2230B58BB00C4651
:1011FC008DF8243009A92546B4FBF2F404FB1253F4
:10120C00DBB2092B94BF30333733DBB2AA4201F87F
:10121C00013DF0D9FFF7D2FF0BB030BD10B504463D
:10122C0028B100F0FDFB90FBF4F303FB1404204603
:10123C0010BD884210B5044603DA081AFFF7EEFF1A
:10124C000444204610BD00000022014B9A607047F8
:10125C001C0A002070B5002604460D4640F8086FA5
:10126C00FFF7D0FC28462570FFF746FD2046666048
:10127C0070BD10B504460068FFF752FE204610BD45
:10128C0010B50446006808B1FFF74AFE0023C4E914
:10129C000133236010BD38B504460D46006801319A
:1012AC00FFF746FE10B1C4E90005012038BD10B5AA
:1012BC000368044623B143688B4201D3012010BD5F
:1012CC002046FFF7E8FF0028F9D0A368002BF5D1E2
:1012DC0022681370F2E770B50E46114604461546A7
:1012EC00FFF7E5FF20B92046FFF7CAFF204670BD87
:1012FC002A4631462068A56000F058FB0021226880
:10130C00A368D154F2E738B5002304460D46C0E972
:10131C0000338360037339B1084600F0B5FB2946EE
:10132C0002462046FFF7D7FF204638BD0222002098
:10133C00044B1A60044B054A1860988098719A60A7
:10134C00FFF762BD380A00202C0A00200000FFFFC6
:10135C00024B1A68024B1A60704700BF88090020C4
:10136C003C0A0020704741747047704708B5007CF8
:10137C00FFF70AFD20EAE07008BD08B5007CFFF716
:10138C00DBFC20EAE07008BD08B5007CFFF7E4FC4C
:10139C0040EAE07008BD08B5007CFFF7D5FC40EAD8
:1013AC00E07008BD007CFFF7DFBC70B5467C0446DE
:1013BC000D462EB12946207CBDE87040FFF7B4BC29
:1013CC00007CFFF7E1FC0028F4DC304670BD10B562
:1013DC000446142100F0D2FA204610BD4FF0000C48
:1013EC0010B50446084611464FF47A72C4E901C29E
:1013FC00044A20742260012262741A46FFF78CFCA6
:10140C00204610BD401C0A0838B50C4D2978BFF396
:10141C005B8F11F001040FD12846FEF73AFE58B14C
:10142C002146074B074A0848FFF7D8FF2846FEF726
:10143C0035FE064800F0A6FA034838BD400A0020E5
:10144C00C80A0020440A00204C0B002077130A081D
:10145C00417470477047704708B50021007CFFF756
:10146C00B3FC40EAE07008BD08B50121007CFFF731
:10147C00ABFC40EAE07008BD08B5007CFFF79CFCB3
:10148C0020EAE07008BD08B5007CFFF78DFC20EA6F
:10149C00E07008BD38B50446007C0D46FFF78CFCA7
:1014AC00002801DC607C28B12946207CFFF794FCE5
:1014BC0020EAE07038BD007CFFF796BC10B50446FE
:1014CC00142100F05BFA204610BD704710B54FF4A4
:1014DC007A73044608460021C4E90113044B2074B6
:1014EC002360012311466374FFF756FC204610BDA0
:1014FC00701C0A0810B504461422002100F064FA8E
:10150C00054B20466360054BE36040F201132381D9
:10151C008123238210BD00BF900B0020910C002072
:10152C0030B50E4D87B001A8FFF7E4FF2978BFF363
:10153C005B8F11F001040ED12846FEF7AAFD50B1C5
:10154C00214601AA0648FFF7C1FF2846FEF7A6FD73
:10155C00044800F017FA024807B030BD600B0020B9
:10156C00680B002061140A0810B5044614220021EF
:10157C0000F02AFA054B20466360054BE36040F20D
:10158C00011323818123238210BD00BF120D002083
:10159C00130E002010B50E4C86B001A8FFF7E4FF27
:1015AC002378BFF35B8FDB070ED42046FEF771FD6B
:1015BC0050B1012101AA0748FFF788FF2046FEF72A
:1015CC006DFD054800F0DEF9024806B010BD00BF05
:1015DC00640B00207C0B0020D7140A080022406802
:1015EC001146FFF74DBCF0B5154689B011220E46D9
:1015FC000446002103A800F0E7F9284600F044FA5D
:10160C00002781B273682846009703AAFFF7F4FB02
:10161C0030B139462046FFF723FD204609B0F0BD16
:10162C00204603A9FFF70AFDF7E7002240681146A0
:10163C00FFF746BC002240681146FFF751BC002260
:10164C004068FFF745BC0022406881F00101FFF7BC
:10165C002FBC002340681A461946FFF721BC002313
:10166C0040681A461946FFF713BC00224068114621
:10167C00FFF7F6BB002202214068FFF7F9BB0023FD
:10168C0040681A46FFF7E4BB0422024B5A60024A38
:10169C001A607047940E0020A01C0A08014B1860B9
:1016AC00704700BF8C09002008B5134B43B1FFF7FE
:1016BC0037FF03681B699847002801DDAFF30080F2
:1016CC000E4B43B1FFF7A0FE03681B699847002837
:1016DC0001DDAFF300800A4B0BB1AFF30080094B77
:1016EC0043B1FFF757FF03681B699847002801DDDA
:1016FC00AFF3008008BD00BF000000000000000038
:10170C00000000000000000008B5FFF7CDFFFFF758
:10171C0099FA014B186008BDB40E00200548064A22
:10172C0008B5121A054900F041F9054B054A1A6033
:10173C0008BD00BF0040024004400240001D0A08E2
:10174C00004002401E1C279A002307B51A466FF072
:10175C0077010093FFF76AFB03B05DF804FB000010
:10176C0007B543880A2B08D0502B0BD1094B1B68AB
:10177C004BB103B05DF804EB1847FFF7E5FF03B07E
:10178C005DF804FB00231A466FF077010093FFF716
:10179C004DFBF4E7A00E0020002110B51148FFF717
:1017AC00D7FB114B1A68114B9A420CBF0122002235
:1017BC000F4B1A7001D0FFF7B1FFFFF733FA044655
:1017CC0000F00AF90B4B13B12046AFF30080002157
:1017DC000848FFF735FBBDE8104000210648FFF72D
:1017EC001BBB00BFA9160A08004002401E1C279A0A
:1017FC009C0E0020000000006D170A08024B986830
:10180C0008B1FFF707BA7047A80E0020172870B56B
:10181C00044601D9002070BDA0F10D03022B0BD999
:10182C00012824D800F078F80021007CFFF752FA48
:10183C0080F00100C0B2EEE7124E3178BFF35B8F3F
:10184C0011F001050DD13046FEF723FC48B12946B5
:10185C000D48FFF7FFFC3046FEF720FC0B4800F06C
:10186C0091F8094B1878FFF74FFA0028D2D1123CA7
:10187C00012C05D8FFF7C8FD007CFFF77DFAD7E7F0
:10188C000120C8E7A40E0020A80E002009180A08A1
:10189C00172838B504460D460AD8FF2908D0FFF79B
:1018AC00B5FF28B129462046BDE83840FFF7D2B92C
:1018BC0038BD38B504460D46FFF7D4F9FF2810D0D3
:1018CC00062804D84D2323FA00F0C30709D4204678
:1018DC00FFF79CFF28B129462046BDE83840FFF7AA
:1018EC00C9B938BD70470000002370B5202543806E
:1018FC001423084E04460380314685600561284652
:10190C0000F03EF831466060284600F039F8E0609F
:10191C00204670BDD41C0A0830B50E4D87B029780E
:10192C00BFF35B8F11F0010411D12846FEF7B1FB18
:10193C0068B101A8FFF7D8FF214601AA0648FFF7B6
:10194C003BFB2846FEF7AAFB044800F01BF80248B4
:10195C0007B030BDB80E0020BC0E0020F1180A08EC
:10196C00002307B51A46194600930348FFF78EFB70
:10197C0003B05DF804FB00BFD00E0020FEF787BB60
:10198C00FEF783BB002301461A46184600F084B8C4
:10199C0030B500240139A24201D1002005E0035DDD
:1019AC0001340D5DAB42F6D0581B30BD0A44914258
:1019BC0000F1FF3300D1704710B511F8014B914283
:1019CC0003F8014FF9D110BD03460244934200D1F4
:1019DC00704703F8011BF9E738B50D4B04461D6839
:1019EC00AB6B7BB91820FFF793FA0A4A0A4BA86332
:1019FC00C0E90023094B012283600B238381002360
:101A0C00C0E904230022AB6B1C615A6138BD00BFD6
:101A1C008C0900200E33CDAB34126DE6ECDE0500E4
:101A2C00134B10B51C68A36B7BB91820FFF770FA29
:101A3C00104A114BA063C0E90023104B01228360B4
:101A4C000B2383810023C0E90423A16B0C480A6992
:101A5C004B6950430B4C04FB0300A2FB04345A1C8F
:101A6C00044444F10000C1E9042020F0004010BD02
:101A7C008C0900200E33CDAB34126DE6ECDE050084
:101A8C002DF451582D7F954C034613F8012B002A49
:101A9C00FBD1181A013870472DE9F843DFF8BC80E8
:101AAC000646D8F800001F460D46914600F058F83F
:101ABC00264B1C6834B9264C1C60264B13B11B6892
:101ACC00C4F8883063681F2B07DDD8F8000000F0DD
:101ADC0049F84FF0FF30BDE8F8835EB3D4F88800C6
:101AEC0088B91D4B23B9D8F8000000F03AF8F0E79C
:101AFC004FF48470FFF70CFA0028F4D00023C0E9EF
:101B0C004033C4F8880001226368022E40F8239009
:101B1C0002FA03F200EB8301D0F8003143EA02032E
:101B2C00C0F80031C1F8807002BFD0F804311A43FC
:101B3C00C0F804216368D8F800005A1C02336260B4
:101B4C0044F8235000F00EF80020C4E7740F002076
:101B5C00E80E0020000000001D0F0A08F00900200C
:101B6C0070477047704700001D000A085D000A08A6
:101B7C0085000A0889000A080000000025642C2052
:101B8C0025642C20256400000400000004000000E3
:101B9C000400000000000000000000006D0F0A08A7
:101BAC00B70F0A088F0F0A086F0F0A08970F0A0859
:101BBC009F0F0A08A70F0A08AF0F0A0800000000C1
:101BCC0000000000F90F0A08E90F0A08EB0F0A08D9
:101BDC00617070000000000000000000C1100A08D5
:101BEC00CB100A08D5100A08DF100A08E9100A08F9
:101BFC00F5100A0801110A0809110A0811110A083E
:101C0C001D110A0825110A082F110A0839110A0892
:101C1C0025592D256D2D25645425483A254D3A25F9
:101C2C0053257A0061736374696D650000000000D0
:101C3C000000000071130A08DB130A08B7130A0826
:101C4C009D110A0887130A08A3130A0895130A089A
:101C5C00B1130A0873130A0879130A08000000006C
:101C6C000000000063140A08C9140A08A1140A0829
:101C7C009D110A0893140A0865140A0875140A08B9
:101C8C00C3140A0885140A085D140A080000000031
:101C9C00000000008B160A0881160A0877160A083D
:101CAC00E9150A086B160A085F160A0801110A08DA
:101CBC0009110A0853160A084B160A0841160A0895
:101CCC0037160A08F3150A0800000000B1100A08BC
:101CDC0089110A0855120A0839130A085D130A08F3
:101CEC0095160A086D190A08000000000000000093
:041CFC0000000000E4
:041D000000000000DF
:101D040000000000000000000000000000000000CF
:101D140000000000010000000000000001000000BD
:101D240001000000010000000100000001000000AB
:101D3400010000000100000002000000010000009A
:101D44000200000002000000020000000200000087
:101D5400020000000000000000000000020000007B
:101D6400000000000200000002000000000000006B
:101D7400010000000200000060EA0000030000000F
:101D840011000000110000000D0000000D00000013
:101D9400070000000700000003000000020000002C
:101DA40010000000100000000C0000000C000000F7
:101DB400070000000700000002000000010000000E
:101DC4000F0000000F0000000B0000000B000000DB
:101DD40007000000070000000100000000000000F0
:101DE4000E0000000E0000000A0000000A000000BF
:101DF40007000000070000000000000003000000CE
:101E04000E0000000E0000000C0000000C0000009A
:101E140006000000060000000300000002000000AD
:101E24000F0000000F0000000D0000000D00000076
:101E3400060000000600000002000000010000008F
:101E440010000000100000000A0000000A0000005A
:101E54000600000006000000010000000000000071
:101E640011000000110000000B0000000B00000036
:101E7400060000000600000000000000030000004F
:101E840010000000100000000B0000000B00000018
:101E9400050000000500000003000000020000002F
:101EA40011000000110000000A0000000A000000F8
:101EB4000500000005000000020000000100000011
:101EC4000E0000000E0000000D0000000D000000D8
:101ED40005000000050000000100000000000000F3
:101EE4000F0000000F0000000C0000000C000000B8
:101EF40005000000050000000000000003000000D1
:101F04000F0000000F0000000A0000000A0000009B
:101F140004000000040000000300000002000000B0
:101F24000E0000000E0000000B0000000B0000007B
:101F34000400000004000000020000000100000092
:101F440011000000110000000C0000000C00000053
:101F54000400000004000000010000000000000074
:101F640010000000100000000D0000000D00000033
:101F7400040000000400000000000000080000004D
:101F8400030000000D000000110000000700000025
:101F94000D00000003000000070000001100000015
:101FA400020000000C000000100000000700000008
:101FB4000C000000020000000700000010000000F8
:101FC400010000000B0000000F00000007000000EB
:101FD4000B00000001000000070000000F000000DB
:101FE400000000000A0000000E00000007000000CE
:101FF4000A00000000000000070000000E000000BE
:10200400030000000C0000000E00000006000000A9
:102014000C00000003000000060000000E00000099
:10202400020000000D0000000F0000000600000088
:102034000D00000002000000060000000F00000078
:10204400010000000A00000010000000060000006B
:102054000A0000000100000006000000100000005B
:10206400000000000B00000011000000060000004A
:102074000B0000000000000006000000110000003A
:10208400030000000B000000100000000500000029
:102094000B00000003000000050000001000000019
:1020A400020000000A00000011000000050000000A
:1020B4000A000000020000000500000011000000FA
:1020C400010000000D0000000E00000005000000EB
:1020D4000D00000001000000050000000E000000DB
:1020E400000000000C0000000F00000005000000CC
:1020F4000C00000000000000050000000F000000BC
:10210400030000000A0000000F00000004000000AB
:102114000A00000003000000040000000F0000009B
:10212400020000000B0000000E000000040000008C
:102134000B00000002000000040000000E0000007C
:10214400010000000C000000110000000400000069
:102154000C00000001000000040000001100000059
:10216400000000000D00000010000000040000004A
:102174000D0000000000000004000000100000003A
:10218400040000000400000004000000040000003B
:10219400040000000400000004000000040000002B
:1021A400040000000400000004000000040000001B
:1021B400040000000400000004000000040000000B
:102484008C0000000A0000000300000007000000A8
:1024940011000000030000000D0000001100000006
:1024A400070000000D00000002000000070000000B
:1024B40010000000020000000C00000010000000EA
:1024C400070000000C0000000100000007000000ED
:1024D4000F000000010000000B0000000F000000CE
:1024E400070000000B0000000000000007000000CF
:1024F4000E000000000000000A0000000E000000B2
:10250400070000000A0000000300000006000000AD
:102514000E000000030000000C0000000E0000008C
:10252400060000000C00000002000000060000008D
:102534000F000000020000000D0000000F0000006A
:10254400060000000D00000001000000060000006D
:1025540010000000010000000A000000100000004C
:10256400060000000A000000000000000600000051
:1025740011000000000000000B000000110000002A
:10258400060000000B00000003000000050000002E
:1025940010000000030000000B0000001000000009
:1025A400050000000B000000020000000500000010
:1025B40011000000020000000A00000011000000E9
:1025C400050000000A0000000100000005000000F2
:1025D4000E000000010000000D0000000E000000CD
:1025E400050000000D0000000000000005000000D0
:1025F4000F000000000000000C0000000F000000AD
:10260400050000000C0000000300000004000000AE
:102614000F000000030000000A0000000F0000008B
:10262400040000000A000000020000000400000092
:102634000E000000020000000B0000000E0000006D
:10264400040000000B000000010000000400000072
:1026540011000000010000000C0000001100000047
:10266400040000000C000000000000000400000052
:1026740010000000000000000D0000001000000029
:10268400040000000D000000301C0A08900900201E
:102694000000000000000000000000000000000036
:1026A4000000000000000000000000000000000026
:1026B4000000000000000000000000000000000016
:1026C4000000000000000000000000000000000006
:1026D40000000000000000000000000000000000F6
:1026E40000000000000000000000000000000000E6
:0426F400790F00203A
:1026F800FFFFFFFF00000102030405060708090A9F
:102708000B0C0D0E0F101112131415161718191A99
:082718001B1C1D1E1F202800E0
:0427200078563412A1
:04000005080A001CC9
:00000001FF
