:02000004080AE8
:1000000000000A08D42D0A080000060006000501B9
:080010000402FE0800000000DC
:040018009C210A0815
:10001C0009480A4908B5884205D0094A824202D0EB
:10002C00121A01F0D7FF0748074A0021121A01F0F3
:10003C00DFFF064808BD00BF0000002074230A083B
:10004C00380A0020380A0020D10F0020D10F0020E0
:10005C0070B501F0B5FE0025054E064CA41BA40896
:10006C00A54200D170BD56F8043B98470135F7E71F
:10007C0054230A0870230A0800F04EB808B501F0A2
:10008C0057F8BDE8084001F053BE01F013BA01F077
:10009C0019BA0078B0FA80F0400970470123037058
:1000AC00704700000122184BF0B51A70002387B07E
:1000BC00CDE90233CDE9043305AB019304AB0093D6
:1000CC001249006803AB02AA01F00CFA042818D1FB
:1000DC00302403980C216043C024029E049B74437B
:1000EC00059E4B4371430A4F0A4A7E181D187958D6
:1000FC002344254403445151134472685A60B26836
:10010C009A60012007B0F0BD400A0020B0210A0817
:10011C00000000208004002010B5064C064A204642
:10012C00064901F005FA2046BDE81040044A05498D
:10013C0001F0FEB911150A08BF210A08B1000A081E
:10014C00C7210A0849050A0842F21072F8B5184B83
:10015C00184C1A602368184D33B9032323602868A0
:10016C0000F0F4FF286003E0013B032B2360F6D082
:10017C000C232A6811495343CA18CD583021D2E9AF
:10018C00016723680E4A01FB032300211A46002055
:10019C0001300428C2E90056976002F10C02F7D135
:1001AC000131042903F1C003F0D10120F8BD00BFD7
:1001BC0078000020580A0020380A00200000002097
:1001CC008004002042F21072F0B5234B85B0054636
:1001DC00042100201A6001F026FB0421029000206B
:1001EC0001F021FB1D4C0390206800F0AFFF206054
:1001FC0000941B49286803AB02AA01F073F9DDE9EE
:10020C00026103284FF00C002468164D00FB04F427
:10021C0005EB04032F59D3E901544FF0300303FBD2
:10022C0006F300FB0133104A13444FF000020AD1CD
:10023C000132042AC3E900759C6003F1C003F7D1B5
:10024C00012005B0F0BD0132042AC3E900759C60A1
:10025C0003F1C003F7D1F3E778000020380A00203F
:10026C00B4210A08000000208004002042F2107221
:10027C00F0B5234B85B00546042100201A6001F02F
:10028C00D2FA04210290002001F0CDFA1D4C03900B
:10029C00206800F05BFF206000941B49286803ABCA
:1002AC0002AA01F01FF9DDE9026103284FF00C00EE
:1002BC002468164D00FB04F405EB04032F59D3E915
:1002CC0001544FF0C00303FB06F300FB0133104A4B
:1002DC0013444FF000020AD10132042AC3E900751D
:1002EC009C6003F13003F7D1012005B0F0BD013261
:1002FC00042AC3E900759C6003F13003F7D1F3E7DE
:10030C0078000020380A0020B4210A0800000020E0
:10031C008004002042F21072F0B5274B85B00546E0
:10032C00042100201A6001F07EFA042102900020C2
:10033C0001F079FA214C0390206800F007FF20604F
:10034C0000941F49286803AB02AA01F0CBF80C21DA
:10035C0023681C4D594303281B4A05EB0103DDE9B7
:10036C00026015D16F58D3E90154C02303FB06F189
:10037C00302303FB0013134400220132042AC3E987
:10038C0000759C6003F10C03F7D1012005B0F0BDA2
:10039C006D58D3E90141C0237343302606FB00336B
:1003AC00134400220132042AC3E90054996003F17A
:1003BC000C03F7D1E9E700BF78000020380A0020D1
:1003CC00B4210A080000002080040020F8B5134C6A
:1003DC00206800F0C2FE0C2320605843104ADFF85E
:1003EC0044C0131815580022D3E9016700210CEB07
:1003FC000200034600240134042CC3E900569F601C
:10040C0003F10C03F7D10131042900F13000F0D1D4
:10041C00C032B2F5407FE9D10120F8BD380A002086
:10042C0088070020800400204FF496722DE9F84FC5
:10043C0000251A4BDFF86C901A60DFF86CA0184B93
:10044C0000264FF00C0B5F193C464FF00008D9F812
:10045C00000008F101080BFB00F20AEB02015AF84C
:10046C0002200C3444F80C2C4A6844F8082C8A6896
:10047C0044F8042C00F06AFEB8F1040F084BC9F8DC
:10048C000000E4D10136042E07F13007DCD1C03571
:10049C00B5F5407FD4D10120BDE8F88F800700204E
:1004AC0080040020380A00200000002000220421D3
:1004BC0070B50B4E0020B418234600250135042DD1
:1004CC00C3E90011996003F10C03F7D10130042842
:1004DC0004F13004F0D1C032B2F5407FEAD170BDE6
:1004EC008004002070B500F077FE0F4D0F4E2B6886
:1004FC003060C01A0E4B1B68984213D300240D4B6E
:10050C001C70FFF7D3FF0C4A33682B6013780A2B4F
:10051C001FBF0B200133B3FBF0F100FB11330CBFF9
:10052C001470137070BD00BF440A00204C0A0020E8
:10053C0078000020400A00207C02002008B5FFF75C
:10054C00B5FF012008BD00002DE9F0430024012671
:10055C00124B85B001AD93E8070085E80700DFF882
:10056C004090002709EB040840460C22294601F074
:10057C0023FD0137002808BF0026042F08F130089E
:10058C00F2D1C034B4F5407FEBD126B105B0BDE853
:10059C00F043FFF78BBF05B0BDE8F083D0210A080C
:1005AC00800400202DE9F04DFFF7CEFF062100203E
:1005BC0001F039F9304F314E314D05280ED8DFE8B6
:1005CC0000F00308454A50553B68002B01DD013B08
:1005DC0003E03B68022BFADC01333B600C22302138
:1005EC002B683068534301FB0033C0213868254C1D
:1005FC0001FB0030D4F800A0DFF88C80DFF88CB061
:10060C0002FB0A81584401F0D7FC18B9504600F09F
:10061C009DFD2060302031680C224143C0202B68A6
:10062C0024683F6853436243784308EB02065D1825
:10063C0058F80220054403444BF805200B4472681B
:10064C005B445A60B2689A60BDE8F08D3368002B49
:10065C0001DD013B03E03368022BFADC013333602C
:10066C00BCE72B68002B01DD013B03E02B68022B60
:10067C00FADC01332B60B1E7540A0020580A002041
:10068C005C0A0020380A00200000002080040020B2
:10069C002DE9F04F8DB00993169BCDE90A219942B3
:1006AC00089040F38A8016A90BA800F069FD01237D
:1006BC000A9A0093179B9A4240F3818017A90AA8C3
:1006CC0000F05EFD0123099A0193189B9A4278DD94
:1006DC0018A909A800F054FD0123169C02930B9B4A
:1006EC00179DE41A0A9B189EED1A099BAC42A6EBC7
:1006FC00030668DDB442A246B8BFB2460027BB462B
:10070C0006FB0AF3059305FB0AF3069304FB0AF3B5
:10071C00CDE903770793039B5345009B5DDA514664
:10072C00002B54D0079800F020FD0B9B514600EB9A
:10073C000308019B002B4CD0069800F016FD0A9B79
:10074C00514600EB0309029B002B44D0059800F0A6
:10075C000CFD0C21099BAB44184401FB00F3302029
:10076C0000FB09F9C02000FB08F80846089903EBC8
:10077C00090248432F49424401EB000C98440858A5
:10078C002D49DCF80430C14489448850C9F8043040
:10079C00DCF808302744C9F80830039B0133039375
:1007AC00059B9B1B0593049B33440493069B5B1B8B
:1007BC000693079B1B1B0793ADE7002378E70023E9
:1007CC0081E7002389E7B54294DDAA4696E73846CF
:1007DC00A9E75846B1E70498B9E71BB116A90BA8CD
:1007EC0000F0CEFC019B1BB117A90AA800F0C8FCB5
:1007FC00029B1BB118A909A800F0C2FC3024179960
:10080C000C206143C024169E189B7443089E4343DE
:10081C007043084F084A3E185D1838582344254445
:10082C000B445051134472685A60B2689A600DB010
:10083C00BDE8F08F00000020800400202DE9FF4768
:10084C00FFF734FE3D4B3E4F196898460229CCBF4A
:10085C000021013119603B680325022BC8BF00231E
:10086C004FF000044FF0010A4FF00209D8BF0133DA
:10087C00344E3B606B1A224630680093CDE901542C
:10088C002346FFF705FFD8F8001022466B1A306894
:10089C000093CDE9015A5346FFF7FAFED8F8001041
:1008AC0022466B1A30680093CDE901594B46FFF78D
:1008BC00EFFED8F8001022466B1A30680093CDE991
:1008CC0001552B46FFF7E4FE3A682946AB1ACDE9F1
:1008DC000043306823460294FFF7DAFE3A68294653
:1008EC00AB1ACDE9004330685346CDF808A0FFF7AA
:1008FC00CFFE3A682946AB1ACDE9004330684B4627
:10090C00CDF80890FFF7C4FE3A682946AB1ACDE93A
:10091C00004330682B460295FFF7BAFE0A4A13686B
:10092C000C2B07DD3068146000F010FC306004B054
:10093C00BDE8F08701331360F9E700BF540A0020CB
:10094C00580A0020380A0020500A00202DE9F04FE8
:10095C00984287B0CDE90410CDE9023203DD02A93B
:10096C0005A800F00DFC049A109B9A4203DD10A917
:10097C0004A800F005FC039A119B9A4203DD11A90F
:10098C0003A800F0FDFB30200C23C0266FF02F05D0
:10099C00DDF810C0039C00FB0CF203FB0422059F46
:1009AC002D4906FB0722DDF808800A44A8EB070155
:1009BC004E4305FB0CF1DDF840E0DDF844A000FBF4
:1009CC000E1126480191129903FB0103A2453FDB4E
:1009DC001046E1469119CE4500F1300001F130018D
:1009EC001EDA1046B94601995118C84500F1C000ED
:1009FC0001F1C00129DB5D68D3F800B040F8BC5CA4
:100A0C009D6840F8C0BC40F8B85C5D6841F8C0BC5B
:100A1C0041F8BC5C9D6809F1010941F8B85CE4E758
:100A2C005D68D3F800B040F82C5C9D6840F830BC91
:100A3C0040F8285C5D6841F830BC41F82C5C9D683E
:100A4C0009F1010941F8285CC5E701340C32BDE716
:100A5C0007B0BDE8F08F00BF80040020000000202C
:100A6C003222F0B5194B1A4C1A4F1B4D1A602E78C6
:100A7C0022683B6885B0CDE901239EB10223012198
:100A8C0000930846FFF762FF23680133032B01DC58
:100A9C00236005E0032323602B7883F001032B7084
:100AAC0005B0F0BD0323314600933046FFF74EFFEF
:100ABC002368013BECD52B78386883F00103266062
:100ACC002B7000F043FB3860EAE700BF8007002082
:100ADC003C0A0020380A00207D02002032222DE939
:100AEC00F041944B94B0944C04AD1A600FCC0FC5EC
:100AFC0094E80F00103485E80F000FCC0CAD0FC537
:100B0C0094E80F00022485E80F00002501218B4F8B
:100B1C0014AA3B68084602EB830353F8403C2A4670
:100B2C000293CDE900452346FFF710FF01213B68F6
:100B3C0014AA02EB830353F8403C08462A46CDE93D
:100B4C00015300942346FFF701FF01214FF00108E8
:100B5C003B6814AA02EB8303032653F8203C084697
:100B6C002A46CDE9015300942346FFF7EFFE7B683C
:100B7C0014AA02EB830353F8403C424641464046DC
:100B8C000293CDE900482346FFF7E0FE7B6814AAE8
:100B9C0002EB830353F8203C424641464046CDE9E4
:100BAC00018300942346FFF7D1FEBB6814AA02EB25
:100BBC00830353F8403C224641464046CDE901436D
:100BCC0000942346FFF7C2FEBB6814AA02EB830312
:100BDC0053F8203C224641464046CDE9014300945F
:100BEC002346FFF7B3FEFB6814AA02EB830353F80A
:100BFC00403C3246414640460293CDE900462346EE
:100C0C00FFF7A4FEFB6814AA02EB830353F8203C05
:100C1C00324641464046CDE9016300942346FFF736
:100C2C0095FE3B6914AA02EB830353F8403C324611
:100C3C0029462846CDE9016300963346FFF786FE28
:100C4C003B6914AA02EB830353F8203C3246294635
:100C5C002846CDE9016300963346FFF777FE7B69A2
:100C6C0014AA02EB830353F8403C2246294628463B
:100C7C00CDE9014300963346FFF768FE7B6914AA61
:100C8C0002EB830353F8203C224629462846CDE943
:100C9C00014300963346FFF759FEBB6914AA02EBD9
:100CAC00830353F8403C424629462846CDE901834C
:100CBC0000963346FFF74AFEBB6914AA02EB830386
:100CCC0053F8203C424629462846CDE9018300963C
:100CDC003346FFF73BFEFB6914AA02EB830353F880
:100CEC00403C2A4629462846CDE901530096334616
:100CFC00FFF72CFEFB6914AA02EB830353F8203C8C
:100D0C002A46CDE901532946334628460096FFF77B
:100D1C001DFE08223B680133594201F0070103F024
:100D2C00070358BF4B42013A47F8043BF2D114B0C9
:100D3C00BDE8F08180070020DC210A08AC09002006
:100D4C002DE9F04FDFF844814D4FDFF83CC1DFF85F
:100D5C0040E1D8F800103D68DCF8002085B0C1F106
:100D6C000303DEF800400193022DC2F1030302934A
:100D7C0044484FF00C03C4F1030A32DC03FB05F6C4
:100D8C00DFF810C15A435CF806E00CEB060830267D
:100D9C004FF0C00C71430CFB04F402EB010922442C
:100DAC001144029A0CFB0AFC5343019AA14456438A
:100DBC0040F809E0D8F80840D8F804909A19634430
:100DCC00014462443344C1F804908C6040F802E062
:100DDC001844C0E9019401353D60012005B0BDE81F
:100DEC00F08F00263E6030274FF0C00B03FB02F55E
:100DFC004F4305EB0709039704270BFB04FBD9446E
:100E0C0040F8097005EB0B09039D4FF0C00B4D44E6
:100E1C000544C5E90177029D0BFB0AFA6B4302936B
:100E2C003023019D01325D43029B032A03EB05092C
:100E3C005344D1442B4440F809701844C0E901775D
:100E4C00CCF80020C9DD022912DD022C06DDCEF81B
:100E5C000060C8F80060CCF80060BEE7032907DD2D
:100E6C000134C8F80060CCF80060CEF80040B4E75C
:100E7C000022054B01311A60044B1960ADE700BF2D
:100E8C00380A0020800400205C0A0020580A002048
:100E9C00540A0020880700201FB5C8222E4B1A6068
:100EAC0032222E4B1A604EF660222D4B1A602D4BBF
:100EBC001B780A2B14D8DFE803F01E0641391629DB
:100ECC00312149114C006846274900F016FD68464F
:100EDC00FFF736FF684600F0C6FC01E0FFF7AEFCFA
:100EEC0005B05DF804FB68461F4900F006FD684636
:100EFC00FFF76CFAEEE7FFF755FBF1E768461A4986
:100F0C0000F0FBFC6846FFF705FAE3E76846164974
:100F1C0000F0F3FC6846FFF755F9DBE76846124929
:100F2C0000F0EBFC6846FFF7A1F9D3E768460E49E1
:100F3C0000F0E3FC6846FFF707F9CBE768460A497F
:100F4C0000F0DBFC6846FFF76FFAC3E7FFF788FD9C
:100F5C00C6E7FFF7C3FDC3E7800700208407002026
:100F6C00780000207C020020BE210A0838B50C460F
:100F7C0085B22846A4B2002100F09EFF2046002135
:100F8C0000F09AFF2846002100F0A7FF2046BDE89C
:100F9C003840002100F0A1BF80001BB1012B0CD008
:100FAC00074B00E0074B084402EB800203EBC20145
:100FBC00496853F83200FFF7D9BF034BF3E700BF82
:100FCC007C000020AC0700208002002038B50D46C4
:100FDC000446ADB2FFF7CAFFA4B22846012100F0C7
:100FEC006BFF2046012100F067FF2846012100F02D
:100FFC0074FF2046BDE83840002100F06EBF0000B1
:10100C00012B70B54FEA80000FD0022B17D01A4E6F
:10101C000844B3B902EB800206EBC203596856F8D8
:10102C003200BDE87040FFF7D1BF144B084402EB0F
:10103C00800203EBC201496853F83200F1E7104B10
:10104C00F4E702EB800406EBC403596856F834004D
:10105C00FFF78CFF094BE5005A1953F8340051681F
:10106C00FFF784FF064B1D44696853F83400BDE854
:10107C007040FFF77BBF00BFAC0700208002002050
:10108C007C0000202DE9F84F0024194F002635462E
:10109C004FF0000B06EB0708C2464FF003095A4607
:1010AC002946DAF800302046FFF7AAFF114B1868E2
:1010BC0000F08AF85A46294620465AF8043BFFF7B6
:1010CC006BFFB9F10109EAD10BF1010BBBF1040F74
:1010DC0008F10C08E0D10135042D06F13006D7D10A
:1010EC000134042C07F1C007D0D1BDE8F88F00BF44
:1010FC00800400208407002070B500F06DF8094CC6
:10110C00094D0A4E206022682B683168D31A8B4235
:10111C0005D8FFF7B7FF00F05FF82060F3E72A600F
:10112C0070BD00BF4C0A0020480A00208007002038
:10113C0008B5054B1B780BB9FFF7AEFEFFF7D2F9DC
:10114C00BDE80840FFF7D8BF400A00200A22431C24
:10115C0093FBF2F002FB103070470323013090FB3D
:10116C00F3F303EB4303C01A7047400090FBF1F11B
:10117C0001F001000029B8BF404200EB610070474C
:10118C000A680368534003600A6853400B600268A6
:10119C00534003607047000008B5024B1B685B6C42
:1011AC00019308BDD001060808B5024B1B689B6C67
:1011BC00019308BDD001060808B5024B1B685B689B
:1011CC00019308BD9C01060808B5024B1B68DB683F
:1011DC00019308BD9C01060808B5024B1B685B69AE
:1011EC00019308BD9C01060808B5024B1B689B685F
:1011FC00019308BDB001060808B5024B1B68DB68FB
:10120C00019308BDB001060808B5024B1B681B69A9
:10121C00019308BDB001060808B5024B1B681B6E94
:10122C00019308BDAC01060808B5024B1B685B6E48
:10123C00019308BDAC01060808B5024B1B689B6EF8
:10124C00019308BDAC01060808B5024B1B68DB6EA8
:10125C00019308BDAC01060808B5024B1B681B6F57
:10126C00019308BDAC01060808B5024B1B685B6F07
:10127C00019308BDAC01060808B5034B1B68D3F8F5
:10128C008030019308BD0000AC01060808B5024B84
:10129C001B68DB69019308BDB401060808B5024B55
:1012AC001B681B6A019308BDB401060808B5024B04
:1012BC001B689B69019308BDC401060808B5024B65
:1012CC001B685B6A019308BDC401060808B5024B94
:1012DC001B689B6A019308BDC401060808B5024B44
:1012EC001B68DB6A019308BDC401060808B5024BF4
:1012FC001B681B6B019308BDC401060808B5024BA3
:10130C001B685B6B019308BDC401060808B5024B52
:10131C001B689B6B019308BDC401060808B5024B02
:10132C001B681B6C019308BDC401060808B5024B71
:10133C001B681B68019308BDD801060808B5024B51
:10134C001B681B69019308BDD801060808B5024B40
:10135C001B685B69019308BDD801060808B5024BF0
:10136C001B689B69019308BDD801060808B5024BA0
:10137C001B68DB69019308BDD801060808B5024B50
:10138C001B681B6A019308BDD801060808B5024BFF
:10139C001B689B6C019308BDC001060808B5024B85
:1013AC001B685B68019308BDA401060808B5034BD4
:1013BC001B68D3F89030019308BD0000A401060807
:1013CC0008B5034B1B68D3F89C30019308BD000093
:1013DC00A401060808B5024B1B685B68019308BDA5
:1013EC00CC01060808B5024B1B68DB6B019308BDEA
:1013FC00CC01060808B5024B1B685B68019308BD5D
:10140C00C801060808B5024B1B689B68019308BD10
:10141C00C801060808B5024B1B68DB68019308BDC0
:10142C00C801060808B5024B1B681B69019308BD6F
:10143C00C801060808B5024B1B685B69019308BD1F
:10144C00C801060808B5024B1B689B69019308BDCF
:10145C00C801060808B5024B1B68DB69019308BD7F
:10146C00C801060808B5024B1B681B6A019308BD2E
:10147C00C801060808B5024B1B681B6B019308BD1D
:10148C00C801060808B5024B1B685B6B019308BDCD
:10149C00C801060808B5024B1B681B6C019308BDFC
:1014AC00C801060808B5024B1B685B6C019308BDAC
:1014BC00C801060808B5024B1B681B68019308BDE0
:1014CC00A001060808B5024B1B685B68019308BDB8
:1014DC00A001060808B5024B1B689B68019308BD68
:1014EC00A001060808B5024B1B685B69019308BD97
:1014FC00A001060808B5024B1B685B6C019308BD84
:10150C00A001060810B588B00446684600F0F5F94D
:10151C00694604A800F013FA04A8A047044604A8DE
:10152C0000F0A1F9684600F09EF9204608B010BD05
:10153C001FB500231024CDE90201019269461A4619
:10154C001846ADF80230ADF80040FFF743FF04B089
:10155C0010BD7047F8B5064615460C468F18BC42B0
:10156C0006D0336830469B6814F8011B9847F6E7A1
:10157C002846F8BD0022007CFFF74EBE0021007CFF
:10158C00FFF752BE0021007CFFF756BE0021007C05
:10159C00FFF75ABE0021007CFFF75EBE10B5044673
:1015AC00142100F0FFFC204610BD000010B54FF4D4
:1015BC007A73044608460021C4E90113034B114613
:1015CC0023602074FFF758FE204610BD24220A0821
:1015DC00704710B50446182100F0E4FC204610BDFD
:1015EC00F8B50E46002400F10807051D17F8011D7B
:1015FC000A22304600F0EFF8AF42044401D12046F5
:10160C00F8BD002CF2D02E21304600F0E1F8044455
:10161C00ECE7000010B50446044B1122002140F801
:10162C00043B00F0E5FC204610BD00BF4C220A082C
:10163C000346074A10B543F8042B01F1100251F888
:10164C00044B914243F8044BF9D10A781A7010BD3F
:10165C004C220A08024AC0E9002104220275704794
:10166C004C220A0810B59DF8084044EA03240423D0
:10167C0044EA024444EA01644460037510BD00006E
:10168C0037B5044D05609DF818500095FFF7EAFF3B
:10169C0003B030BD4C220A08014B024A1A60704755
:1016AC00600A002058220A08002340681A46FFF7F7
:1016BC00A1BE002202214068FFF7ACBE00224068A8
:1016CC001146FFF79FBE002240681146FFF7AABEE5
:1016DC00002340681A461946FFF7ACBE0023406849
:1016EC001A461946FFF7AEBE00214068FFF7D2BE7E
:1016FC0000214068FFF7D6BE0022406881F001014E
:10170C00FFF7A8BE00224068FFF7B4BE0022406875
:10171C001146FFF7B7BE002240681146FFF7A2BE84
:10172C0070B515468EB0044608A8FFF773FF11225A
:10173C00002103A800F05CFC0026284600F0B8FC51
:10174C000A4B009681B25B68284603AAFFF71EFE7F
:10175C0030B131462046FFF77DFF20460EB070BDFC
:10176C00204603A9FFF764FFF7E700BFE40E002053
:10177C00024B034A1A6000225A607047640A002028
:10178C0064220A08F8B506460D4600248F18BD429F
:10179C000CD0336830469B6815F8011B9847031E24
:1017AC0001DB1C44F3E7002C08BF1C462046F8BDA7
:1017BC0070B505460C46084649B100F079FC2B681B
:1017CC00024621462846BDE87040DB68184770BDCC
:1017DC0003689B6818470023012A98BF0A2230B57A
:1017EC008BB00C468DF8243009A92546B4FBF2F4D5
:1017FC0004FB1253DBB2092B94BF30333733DBB20B
:10180C00AA4201F8013DF0D9FFF7D2FF0BB030BD71
:10181C0010B5044628B100F017FC90FBF4F303FB61
:10182C001404204610BD884210B5044603DA081A89
:10183C00FFF7EEFF0444204610BD00000022014BD0
:10184C009A6070476C0A002070B5002604460D465D
:10185C0040F8086FFFF7A0FC28462570FFF716FD2F
:10186C002046666070BD10B504460068FFF72AFE7E
:10187C00204610BD10B50446006808B1FFF722FEE3
:10188C000023C4E90133236010BD38B504460D466E
:10189C0000680131FFF71EFE10B1C4E900050120FC
:1018AC0038BD10B50368044623B143688B4201D39D
:1018BC00012010BD2046FFF7E8FF0028F9D0A368EF
:1018CC00002BF5D122681370F2E770B50E46114665
:1018DC0004461546FFF7E5FF20B92046FFF7CAFF7F
:1018EC00204670BD2A4631462068A56000F072FB88
:1018FC0000212268A368D154F2E738B500230446CE
:10190C000D46C0E900338360037339B1084600F01B
:10191C00CFFB294602462046FFF7D7FF204638BDAD
:10192C00884210B50B46044604D0096821B19A6868
:10193C00FFF7CBFF204610BDFFF79CFFFAE7002313
:10194C0010B50446C0E9003383600373FFF7E8FF6A
:10195C00204610BD02220020044B1A60044B054A9D
:10196C001860988098719A60FFF718BD880A00205B
:10197C007C0A00200000FFFF024B1A68024B1A6021
:10198C00704700BFCC0900208C0A002070474174BE
:10199C007047704708B5007CFFF7C0FC20EAE07088
:1019AC0008BD08B5007CFFF791FC20EAE07008BD8B
:1019BC0008B5007CFFF79AFC40EAE07008BD08B55A
:1019CC00007CFFF78BFC40EAE07008BD007CFFF761
:1019DC0095BC70B5467C04460D462EB12946207C3C
:1019EC00BDE87040FFF76ABC007CFFF797FC00284D
:1019FC00F4DC304670BD10B50446142100F0D2FA68
:101A0C00204610BD4FF0000C10B504460846114698
:101A1C004FF47A72C4E901C2044A20742260012294
:101A2C0062741A46FFF742FC204610BDBC220A081D
:101A3C0038B50C4D2978BFF35B8F11F001040FD131
:101A4C002846FEF726FB58B12146074B074A0848A3
:101A5C00FFF7D8FF2846FEF721FB064800F0A6FA50
:101A6C00034838BD900A0020180B0020940A00206F
:101A7C009C0B00209F190A084174704770477047EF
:101A8C0008B50021007CFFF769FC40EAE07008BD56
:101A9C0008B50121007CFFF761FC40EAE07008BD4D
:101AAC0008B5007CFFF752FC20EAE07008BD08B5D1
:101ABC00007CFFF743FC20EAE07008BD38B5044613
:101ACC00007C0D46FFF742FC002801DC607C28B14D
:101ADC002946207CFFF74AFC20EAE07038BD007CE8
:101AEC00FFF74CBC10B50446142100F05BFA2046FD
:101AFC0010BD704710B54FF47A73044608460021A8
:101B0C00C4E90113044B2074236001231146637450
:101B1C00FFF70CFC204610BDEC220A0810B5044659
:101B2C001422002100F064FA054B20466360054B3B
:101B3C00E36040F2011323818123238210BD00BF97
:101B4C00E00B0020E10C002030B50E4D87B001A851
:101B5C00FFF7E4FF2978BFF35B8F11F001040ED17E
:101B6C002846FEF796FA50B1214601AA0648FFF71F
:101B7C00C1FF2846FEF792FA044800F017FA024813
:101B8C0007B030BDB00B0020B80B0020891A0A0832
:101B9C0010B504461422002100F02AFA054B204609
:101BAC006360054BE36040F20113238181232382A0
:101BBC0010BD00BF620D0020630E002010B50E4C4E
:101BCC0086B001A8FFF7E4FF2378BFF35B8FDB0738
:101BDC000ED42046FEF75DFA50B1012101AA074848
:101BEC00FFF788FF2046FEF759FA054800F0DEF9AA
:101BFC00024806B010BD00BFB40B0020CC0B002077
:101C0C00FF1A0A08002240681146FFF70BBCF0B51A
:101C1C00154689B011220E460446002103A800F097
:101C2C00E7F9284600F044FA002781B27368284689
:101C3C00009703AAFFF7AAFB30B139462046FFF7FD
:101C4C0009FD204609B0F0BD204603A9FFF7F0FCC2
:101C5C00F7E7002240681146FFF704BC00224068F9
:101C6C001146FFF70FBC00224068FFF703BC0022AF
:101C7C00406881F00101FFF7EDBB002340681A4674
:101C8C001946FFF7DFBB002340681A461946FFF7D9
:101C9C00D1BB002240681146FFF7B4BB00220221E1
:101CAC004068FFF7B7BB002340681A46FFF7A2BB9A
:101CBC000422024B5A60024A1A607047E40E00205C
:101CCC001C230A08014B1860704700BFD009002084
:101CDC0008B5134B43B1FFF737FF03681B699847EF
:101CEC00002801DDAFF300800E4B43B1FFF7A0FEDF
:101CFC0003681B699847002801DDAFF300800A4B8D
:101D0C000BB1AFF30080094B43B1FFF757FF0368EA
:101D1C001B699847002801DDAFF3008008BD00BFA8
:101D2C0000000000000000000000000000000000A7
:101D3C0008B5FFF7CDFFFFF74FFA014B186008BD50
:101D4C00040F00200548064A08B5121A054900F090
:101D5C0041F9054B054A1A6008BD00BF004002401E
:101D6C000440024070230A08004002401E1C279ABF
:101D7C00002307B51A466FF077010093FFF720FB9D
:101D8C0003B05DF804FB000007B543880A2B08D0AC
:101D9C00502B0BD1094B1B684BB103B05DF804EB16
:101DAC001847FFF7E5FF03B05DF804FB00231A4664
:101DBC006FF077010093FFF703FBF4E7F00E0020C0
:101DCC00002110B51148FFF795FB114B1A68114B08
:101DDC009A420CBF012200220F4B1A7001D0FFF760
:101DEC00B1FFFFF7E9F9044600F00AF90B4B13B108
:101DFC002046AFF3008000210848FFF7F3FABDE856
:101E0C00104000210648FFF7D1BA00BFD11C0A08C8
:101E1C00004002401E1C279AEC0E0020000000001F
:101E2C00951D0A08024B986808B1FFF7BDB97047B9
:101E3C00F80E0020172870B5044601D9002070BD9B
:101E4C00A0F10D03022B0BD9012824D800F078F84F
:101E5C000021007CFFF708FA80F00100C0B2EEE729
:101E6C00124E3178BFF35B8F11F001050DD1304666
:101E7C00FEF70FF948B129460D48FFF7E5FC30464F
:101E8C00FEF70CF90B4800F091F8094B1878FFF7A6
:101E9C0005FA0028D2D1123C012C05D8FFF7C8FD59
:101EAC00007CFFF733FAD7E70120C8E7F40E0020D7
:101EBC00F80E0020311E0A08172838B504460D46C6
:101ECC000AD8FF2908D0FFF7B5FF28B129462046CC
:101EDC00BDE83840FFF788B938BD38B504460D4623
:101EEC00FFF78AF9FF2810D0062804D84D2323FACF
:101EFC0000F0C30709D42046FFF79CFF28B1294600
:101F0C002046BDE83840FFF77FB938BD7047000068
:101F1C00002370B5202543801423084E044603800B
:101F2C00314685600561284600F03EF83146606018
:101F3C00284600F039F8E060204670BD50230A08AE
:101F4C0030B50E4D87B02978BFF35B8F11F00104CB
:101F5C0011D12846FEF79DF868B101A8FFF7D8FF0C
:101F6C00214601AA0648FFF721FB2846FEF796F802
:101F7C00044800F01BF8024807B030BD080F0020E1
:101F8C000C0F0020191F0A08002307B51A46194622
:101F9C0000930348FFF774FB03B05DF804FB00BF2C
:101FAC00200F0020FEF773B8FEF76FB80023014630
:101FBC001A46184600F084B830B500240139A24204
:101FCC0001D1002005E0035D01340D5DAB42F6D07C
:101FDC00581B30BD0A44914200F1FF3300D17047C9
:101FEC0010B511F8014B914203F8014FF9D110BD16
:101FFC0003460244934200D1704703F8011BF9E7F2
:10200C0038B50D4B04461D68AB6B7BB91820FFF738
:10201C0051FA0A4A0A4BA863C0E90023094B012272
:10202C0083600B2383810023C0E904230022AB6B64
:10203C001C615A6138BD00BFD00900200E33CDABF6
:10204C0034126DE6ECDE0500134B10B51C68A36B67
:10205C007BB91820FFF72EFA104A114BA063C0E988
:10206C000023104B012283600B2383810023C0E9E2
:10207C000423A16B0C480A694B6950430B4C04FBBD
:10208C000300A2FB04345A1C044444F10000C1E9CF
:10209C00042020F0004010BDD00900200E33CDAB41
:1020AC0034126DE6ECDE05002DF451582D7F954C65
:1020BC00034613F8012B002AFBD1181A013870477C
:1020CC002DE9F843DFF8BC800646D8F800001F461F
:1020DC000D46914600F058F8264B1C6834B9264C36
:1020EC001C60264B13B11B68C4F8883063681F2B27
:1020FC0007DDD8F8000000F049F84FF0FF30BDE8DC
:10210C00F8835EB3D4F8880088B91D4B23B9D8F88E
:10211C00000000F03AF8F0E74FF48470FFF7CAF9CA
:10212C000028F4D00023C0E94033C4F88800012211
:10213C006368022E40F8239002FA03F200EB83014D
:10214C00D0F8003143EA0203C0F80031C1F88070C6
:10215C0002BFD0F804311A43C0F804216368D8F8E0
:10216C0000005A1C0233626044F8235000F00EF851
:10217C000020C4E7C40F0020380F0020000000002E
:10218C00C1140A08340A00207047704770470000D9
:10219C001D000A085D000A0885000A0889000A0863
:1021AC000000000025642C2025642C2025642C20A4
:1021BC002564006C69676874497400726573657492
:1021CC00497400000400000004000000040000003A
:1021DC0000000000000000000000000000000000F3
:1021EC0002000000020000000200000002000000DB
:1021FC0002000000020000000200000002000000CB
:10220C0000000000000000000000000000000000C2
:10221C0000000000000000005F150A08A9150A085C
:10222C0081150A0861150A0889150A0891150A080A
:10223C0099150A08A1150A0800000000000000000A
:10224C00ED150A08DD150A08DF150A086170700023
:10225C000000000000000000B5160A08BF160A08AE
:10226C00C9160A08D3160A08DD160A08E9160A0860
:10227C00F5160A08FD160A0805170A0811170A08A8
:10228C0019170A0823170A082D170A0825592D258E
:10229C006D2D25645425483A254D3A2553257A0051
:1022AC0061736374696D650000000000000000003C
:1022BC0099190A08031A0A08DF190A0891170A085B
:1022CC00AF190A08CB190A08BD190A08D9190A0846
:1022DC009B190A08A1190A08000000000000000060
:1022EC008B1A0A08F11A0A08C91A0A0891170A085F
:1022FC00BB1A0A088D1A0A089D1A0A08EB1A0A0852
:10230C00AD1A0A08851A0A08000000000000000037
:10231C00B31C0A08A91C0A089F1C0A08111C0A08ED
:10232C00931C0A08871C0A08F5160A08FD160A08E9
:10233C007B1C0A08731C0A08691C0A085F1C0A0823
:10234C001B1C0A0800000000A5160A087D170A08C5
:10235C0049180A0861190A0885190A08BD1C0A08D7
:04236C00951F0A08A7
:042370000000000069
:102374000000000000000000010000000000000058
:102384000100000001000000010000000100000045
:102394000100000001000000010000000200000034
:1023A4000100000002000000020000000200000022
:1023B4000200000002000000000000000200000013
:1023C4000200000000000000000000000200000005
:1023D40000000000000000000000000000000000F9
:1023E400010000000200000060EA00000300000099
:1023F40011000000110000000D0000000D0000009D
:1024040007000000070000000300000002000000B5
:1024140010000000100000000C0000000C00000080
:102424000700000007000000020000000100000097
:102434000F0000000F0000000B0000000B00000064
:102444000700000007000000010000000000000079
:102454000E0000000E0000000A0000000A00000048
:102464000700000007000000000000000300000057
:102474000E0000000E0000000C0000000C00000024
:102484000600000006000000030000000200000037
:102494000F0000000F0000000D0000000D00000000
:1024A4000600000006000000020000000100000019
:1024B40010000000100000000A0000000A000000E4
:1024C40006000000060000000100000000000000FB
:1024D40011000000110000000B0000000B000000C0
:1024E40006000000060000000000000003000000D9
:1024F40010000000100000000B0000000B000000A2
:1025040005000000050000000300000002000000B8
:1025140011000000110000000A0000000A00000081
:10252400050000000500000002000000010000009A
:102534000E0000000E0000000D0000000D00000061
:10254400050000000500000001000000000000007C
:102554000F0000000F0000000C0000000C00000041
:10256400050000000500000000000000030000005A
:102574000F0000000F0000000A0000000A00000025
:10258400040000000400000003000000020000003A
:102594000E0000000E0000000B0000000B00000005
:1025A400040000000400000002000000010000001C
:1025B40011000000110000000C0000000C000000DD
:1025C40004000000040000000100000000000000FE
:1025D40010000000100000000D0000000D000000BD
:1025E40004000000040000000000000004010000DA
:1025F400030000000D0000001100000007000000AF
:102604000D0000000300000007000000110000009E
:10261400020000000C000000100000000700000091
:102624000C00000002000000070000001000000081
:10263400010000000B0000000F0000000700000074
:102644000B00000001000000070000000F00000064
:10265400000000000A0000000E0000000700000057
:102664000A00000000000000070000000E00000047
:10267400030000000C0000000E0000000600000033
:102684000C00000003000000060000000E00000023
:10269400020000000D0000000F0000000600000012
:1026A4000D00000002000000060000000F00000002
:1026B400010000000A0000001000000006000000F5
:1026C4000A000000010000000600000010000000E5
:1026D400000000000B0000001100000006000000D4
:1026E4000B000000000000000600000011000000C4
:1026F400030000000B0000001000000005000000B3
:102704000B000000030000000500000010000000A2
:10271400020000000A000000110000000500000093
:102724000A00000002000000050000001100000083
:10273400010000000D0000000E0000000500000074
:102744000D00000001000000050000000E00000064
:10275400000000000C0000000F0000000500000055
:102764000C00000000000000050000000F00000045
:10277400030000000A0000000F0000000400000035
:102784000A00000003000000040000000F00000025
:10279400020000000B0000000E0000000400000016
:1027A4000B00000002000000040000000E00000006
:1027B400010000000C0000001100000004000000F3
:1027C4000C000000010000000400000011000000E3
:1027D400000000000D0000001000000004000000D4
:1027E4000D000000000000000400000010000000C4
:1027F40004000000040000000400000004000000C5
:1028040004000000040000000400000004000000B4
:1028140004000000040000000400000004000000A4
:102824000400000004000000040000000400000094
:102AF400640000000A000000000000000000000064
:102B040000000000010000000100000001000000BE
:102B140002000000020000000200000003000000A8
:102B24000700000011000000030000000D00000079
:102B340011000000070000000D000000020000006A
:102B44000700000010000000020000000C0000005C
:102B540010000000070000000C000000010000004D
:102B6400070000000F000000010000000B0000003F
:102B74000F000000070000000B0000000000000030
:102B8400070000000E000000000000000A00000022
:102B94000E000000070000000A000000030000000F
:102BA400060000000E000000030000000C000000FE
:102BB4000E000000060000000C00000002000000EF
:102BC400060000000F000000020000000D000000DD
:102BD4000F000000060000000D00000001000000CE
:102BE4000600000010000000010000000A000000C0
:102BF40010000000060000000A00000000000000B1
:102C04000600000011000000000000000B0000009E
:102C140011000000060000000B000000030000008B
:102C24000500000010000000030000000B0000007D
:102C340010000000050000000B000000020000006E
:102C44000500000011000000020000000A0000005E
:102C540011000000050000000A000000010000004F
:102C6400050000000E000000010000000D0000003F
:102C74000E000000050000000D0000000000000030
:102C8400050000000F000000000000000C00000020
:102C94000F000000050000000C000000030000000D
:102CA400040000000F000000030000000A00000000
:102CB4000F000000040000000A00000002000000F1
:102CC400040000000E000000020000000B000000E1
:102CD4000E000000040000000B00000001000000D2
:102CE4000400000011000000010000000C000000BE
:102CF40011000000040000000C00000000000000AF
:102D04000400000010000000000000000D0000009E
:102D140010000000040000000D000000000000008E
:102D24000100000002000000030000000400000095
:102D3400050000000600000007000000AC220A089D
:102D4400D409002000000000000000000000000082
:102D5400000000000000000000000000000000006F
:102D6400000000000000000000000000000000005F
:102D7400000000000000000000000000000000004F
:102D8400000000000000000000000000000000003F
:102D9400000000000000000000000000000000002F
:082DA40000000000C90F00202F
:102DAC00FFFFFFFF00000102030405060708090AE4
:102DBC000B0C0D0E0F101112131415161718191ADF
:082DCC001B1C1D1E1F20280026
:042DD40078563412E7
:04000005080A001CC9
:00000001FF
